:020000040800F2
:100000005006002051550008415400084354000890
:1000100000000000000000000000000000000000E0
:10002000000000000000000000000000455400082F
:100030000000000000000000475400084954000878
:10004000AF230008B3280008472900084B290008FF
:100050004F290008074B0008975300083F54000839
:10006000EB540008F7540008555400082B550008BD
:10007000695500086B5500086D5500086F5500085C
:100080007155000873550008000000007555000800
:1000900077550008795500087B5500087D55000804
:1000A0007F550008815500088355000885550008D4
:1000B0008755000800000000895500080000000076
:1000C0000000000000000000000000000000000030
:1000D0000000000000000000000000000000000020
:1000E0000000000000000000000000000000000010
:1000F0000000000000000000000000000000000000
:1001000000000000000000000000000000000000EF
:1001100000000000000000000000000000000000DF
:1001200000000000000000000000000000000000CF
:1001300000000000000000000000000000000018A7
:1001400008C80808000000000000000000007F60F0
:1001500060606060606060E060200000000000009F
:10016000000000000000000000000000000018185F
:100170001810101000000000000000000000000037
:10018000000000000808080C0C0C00000000000033
:1001900000000000000000000000000000006C38BB
:1001A00010007CC6701CC67C0000000000001038E7
:1001B0006C00780C7CCCCC760000000000000000C5
:1001C00000007CC670C0C67C00000000000000007B
:1001D00000006C967CD0D66C00000000000000008F
:1001E00000007CC60606C67C000000000000003847
:1001F0006CC6C6FEC6C66C380000000000000000D9
:10020000001038286C44C6C6000000000000000042
:1002100000007CC606FEC67C000000000000000056
:100220000000DC666666F60606663C000000006CB0
:1002300038F80C7EC6C6C67C000000000000000E28
:100240001B18181818181818D870000000000000A3
:1002500000FE860C180C0606C67C0000000076DC4A
:100260000000780C7CCCCC7600000000000076DC2E
:1002700000007CC60606C67C00000000000076DC9C
:100280000000DC6666666666000000000000000094
:10029000000076999F98996F000000000000000010
:1002A000000000000000000C060600000000000036
:1002B0000000000000003C66663C000000000000FA
:1002C0000000000000000000000000000000001816
:1002D0003C3C3C1818001818000000000000C6C67E
:1002E000C644000000000000000000000000006C98
:1002F0006CFE6C6C6CFE6C6C000000000018187CCE
:10030000C6C2C07C0686C67C18180000000000002B
:1003100000C3C60C183063C30000000000000038A2
:100320006C6C3876DCCCCC760000000000003030FD
:100330003060000000000000000000000000001815
:10034000306060606060301800000000000000183D
:100350000C06060606060C1800000000000000004F
:10036000006C38FE386C0000000000000000000047
:100370001818187E1818180000000000000000006F
:1003800000000000001818183000000000000000F5
:10039000000000FE0000000000000000000000005F
:1003A000000000000000181800000000000000021B
:1003B000060C183060C08000000000000000007CC7
:1003C000C6CEDEF6E6C6C67C0000000000000018BF
:1003D000387818181818187E000000000000007CFB
:1003E000C6060C183060C6FE000000000000007C4D
:1003F000C606063C0606C67C000000000000000C95
:100400001C3C6CCCFE0C0C1E00000000000000FE2A
:10041000C0C0C0FC0606C67C00000000000000381A
:1004200060C0C0FCC6C6C67C00000000000000FE24
:10043000C6060C1830303030000000000000007C90
:10044000C6C6C67CC6C6C67C000000000000007C94
:10045000C6C6C67E06060C7800000000000000003C
:10046000181800000018180000000000000000002C
:1004700018180000001818300000000000000006E6
:100480000C18306030180C0600000000000000005E
:1004900000007E00007E0000000000000000006000
:1004A00030180C060C183060000000000000007CC2
:1004B000C6C60C1818001818000000000000007CC8
:1004C000C6C6DEDEDEDCC07C0000000000000010DE
:1004D000386CC6C6FEC6C6C600000000000000FCA0
:1004E0006666667C666666FC000000000000003CF4
:1004F00066C2C0C0C0C2663C00000000000000F838
:100500006C66666666666CF800000000000000FE1F
:1005100066626878686266FE00000000000000FE07
:1005200066626878686060F0000000000000003CCF
:1005300066C2C0C0DEC6663A00000000000000C609
:10054000C6C6C6FEC6C6C6C6000000000000003C07
:10055000181818181818183C000000000000001E99
:100560000C0C0C0C0CCCCC7800000000000000E659
:10057000666C6C786C6C66E600000000000000F0B1
:1005800060606060606266FE00000000000000C6FF
:10059000EEFED6C6C6C6C6C600000000000000C6F5
:1005A000E6F6FEDECEC6C6C600000000000000383B
:1005B0006CC6C6C6C6C66C3800000000000000FC51
:1005C0006666667C606060F0000000000000007CF1
:1005D000C6C6C6D6DE7C0C0E00000000000000FC83
:1005E0006666667C6C6666E6000000000000007CC3
:1005F000C6C660380CC6C67C000000000000007E45
:100600005A1818181818183C00000000000000C6FE
:10061000C6C6C6C6C6C6C67C00000000000000C62E
:10062000C6C6C6C6C66C381000000000000000C672
:10063000C6C6C6C6D6FEEEC600000000000000C654
:10064000C6C66C386CC6C6C600000000000000C6F6
:10065000C6C66C383838387C00000000000000FE48
:10066000C68C183060C2C6FE000000000000003CCE
:10067000303030303030303C00000000000000806E
:10068000C0E070381C0E0602000000000000003CB4
:100690000C0C0C0C0C0C0C3C000000000010386C16
:1006A000C600000000000000000000000000000084
:1006B000000000000000000000FE000000003030DC
:1006C0001800000000000000000000000000000012
:1006D0000000780C7CCCCC7600000000000000E02C
:1006E0006060786C666666DC000000000000000058
:1006F00000007CC6C0C0C67C000000000000001CDA
:100700000C0C3C6CCCCCCC7600000000000000004F
:1007100000007CC6FEC0C67C000000000000001C7B
:100720003632307C303030780000000000000000AD
:10073000000076CCCCCC7C0CCC780000000000E033
:1007400060606C76666666E60000000000000018D7
:10075000180038181818183C0000000000000006A7
:1007600006000E0606060666663C0000000000E075
:100770006060666C786C66E600000000000000387F
:10078000181818181818183C000000000000000085
:10079000000044FED6D6D6D60000000000000000BF
:1007A0000000DC666666666600000000000000006F
:1007B00000007CC6C6C6C67C000000000000000029
:1007C0000000DC6666667C6060F0000000000000EF
:1007D000000076CCCCCC7C0C0C1E0000000000008D
:1007E0000000DC76666060F00000000000000000A1
:1007F00000007CC6701CC67C0000000000000010D9
:100800003030FC303030361C0000000000000000AA
:100810000000CCCCCCCCCC76000000000000000066
:100820000000C6C6C66C38100000000000000000C2
:100830000000C6C6C6D6FE6C000000000000000026
:100840000000C66C38386CC60000000000000000D4
:100850000000C6C6C6C67E060C7800000000000078
:100860000000FECC183066FE000000000000000E04
:10087000181818701818180E000000000000001852
:100880001818180018181818000000000000007050
:100890001818180E181818700000000000000076D4
:1008A000DC0000000000000000000000000000006C
:1008B0000000000000000000000000000000000038
:1008C0000000000000000000000000000000000028
:1008D0000000000000000000000000000000000018
:1008E0000000000000000000000000000000000008
:1010C000FDB5B2B03A98049102A93B2288540020A1
:1010D0000D9024A8401C2F900DE00498329A904760
:1010E0000490002801D100F001FF0D98401C0D90E4
:1010F0003398401C339033980178002910D025296B
:10110000EBD100200790089009900A900B900C906A
:10111000002102240120149008201290339D05E044
:101120000D9800F0E5FE0800149901436D1C287825
:101130002028F8D023280BD02B2804D02D2804D029
:10114000302808D00AE02143F0E708000421ECE74A
:1011500008000821E9E708001021E6E72A280FD156
:10116000349802681068121D349B1A600F90002892
:1011700004D542420F920800042101436D1C12E085
:1011800000200F90654A09E00F9B934205DA9E000C
:10119000F3185B00181830380F906D1C2878030086
:1011A000303B0A2BF0D328782E2803D00020C043F0
:1011B0000E9027E06D1C28782A2808D13498006802
:1011C0000268001D349B18600E926D1C1AE02D28D9
:1011D00002D12D226D1C00E0002200200E900CE0B8
:1011E000002A09D10E9B4D4EB34205DA9E00F3183A
:1011F0005B00181830380E906D1C28780300303BC7
:101200000A2BEDD302A801872E783100414878449B
:10121000FF30C01C00F052FF002801D06D1C00E020
:10122000002602A83A214654405C682804D1287858
:1012300068280BD1622005E06C2807D128786C283B
:1012400004D1712002A93A2288546D1C15A8069079
:10125000287869460870681C339068460278100048
:10126000253833D01C3800D118E2001F022800D8DE
:1012700014E2133801D100F065FD093800D10DE208
:10128000801E01D100F0FBFD401E01D100F0A8FD41
:10129000401E022800D801E2001F01D100F0A0FD8D
:1012A000401F00D153E1401E01D100F04BFD401E14
:1012B00000D1F3E0C01E10D0801E01D100F042FD2D
:1012C000C01E01D100F03EFD00F0E4FD252015A96F
:1012D00008701498079000F0E8FD349800680468DE
:1012E000001D349908600594002C00D0C2E002A8CB
:1012F0003B21405C002800D1B5E00024E4430648CF
:101300007844143000F002FF201A01D000F0EEFD06
:1013100000F0CBFD84400000B8400000CBCCCC0CEA
:1013200001236A4602A9280000F0ADFE002801D082
:1013300000F0DCFD641EF3D13295079D15AC002D45
:101340000FD0329E227802A9300000F08BFE0028D8
:1013500002D4641C6D1EF5D13296002801D000F035
:10136000C5FD3020694608700A9C002C0DDD329DB9
:1013700001236A4602A9280000F085FE002801D05A
:1013800000F0B4FD641EF3D13295059C089D002D3C
:101390000FD0329E227802A9300000F063FE0028B0
:1013A00002D4641C6D1EF5D13296002801D000F0E5
:1013B0009DFD302769460F700B9C002C0DDD329D82
:1013C00001236A4602A9280000F05DFE002801D032
:1013D00000F08CFD641EF3D13295059808994418ED
:1013E000099D002D0FD0329E227802A9300000F016
:1013F00039FE002802D4641C6D1EF5D132960028F7
:1014000001D000F073FD684607700C9C002C0DDDC8
:10141000329D01236A4602A9280000F034FE00280C
:1014200001D000F063FD641EF3D1329502A838218B
:10143000405C400700D45EE62020694608700198B1
:10144000002800DC57E6019C329D01236A4602A970
:10145000280000F018FE002801D000F047FD641EAF
:10146000F3D1329547E640487844FF30C01E0590DE
:1014700000F01BFD0E9D002D03D5200000F06AFE3C
:1014800009E02A000021200000F088FE002801D099
:10149000001B00E02800089000F007FD3498006869
:1014A0000268001D349908600020C04300211040EC
:1014B00002AA03C215A80590069A3C2302A803C8F5
:1014C000002904D1002802D10E9C002C15D05B1EEF
:1014D00005072D0F3035EEB23A2E08DAD554000943
:1014E0000C072043090904D1002802D105E0273563
:1014F000F4E7059CD518AC42E9D33C20C01A08900B
:10150000D11805910E99884208DA081A0A9002A8A3
:10151000018FAA4A0A40028700F0C7FC002901D4C3
:1015200000F0C3FC02A93822895C14220A40102A68
:1015300001D000F0BAFC0F99079A891A0A9A891A01
:10154000081A002801DC00F0B0FC00F0F9FB02A84A
:101550003B21415C002909D00024E4434B487844F6
:10156000FF302B30CEE600BF843E00003A21405CC5
:1015700062286AD0682819D06A2845D06C2806D01D
:1015800071284FD0742831D07A2821D06FE0349858
:1015900000680168001D349A106000297AD1002487
:1015A000E4433B487844FF301738ABE63498006892
:1015B0000168001D349A1060002905D10024E4431D
:1015C00033487844CA309DE60D98088000F06DFCE1
:1015D000349800680168001D349A1060002959D1C0
:1015E0000024E4432A487844A6308BE63498006807
:1015F0000168001D349A106000294BD10024E44397
:10160000234878448A307DE6349800680268001DDB
:1016100034990860002A13D10024E4431C4878441C
:101620006E306FE6349800680268001D34990860D7
:10163000002A05D10024E44315487844523061E67D
:101640000D98C11703C200F030FC3498006801689F
:10165000001D349A1060002905D10024E4430C4891
:1016600078442C304EE60D98087000F01EFC34983B
:1016700000680168001D349A106000290AD1002416
:10168000E4430348784408303CE600BF143D0000C2
:10169000283D00000D98086000F007FC34980368AE
:1016A000DB1D072083433498036003CB349D2B60FC
:1016B00002AB03C32023C80F04D007982D2115AB1C
:1016C00019540DE002A8008F204204D007982B2166
:1016D00015AB195404E0C00704D5079815A90B549D
:1016E000401C079015A807994318059324AD02A83C
:1016F000C0C868460078202101436846817061298E
:1017000009D00E98002801D5062003E003D16729EF
:1017100001D114980E9002A803C808004C0064156B
:10172000641C0ED109030CD003200890613A1A2AD8
:1017300003D22349794488310FE022497944843126
:101740000BE0002C0ED100030CD103200890613A6D
:101750001A2A1DD31C4979446E310322180000F067
:1017600049FDA2E301AA02A803C800F078FD02AA7D
:1017700003C268468078612813D105983021017032
:10178000811C059169460978612905D1782104E019
:101790000E4979443631E0E7582141700798801CA2
:1017A000079002A803C893A20CCA02400B400FD1B5
:1017B000002A0DD10024002661E100BFEFFF0000E8
:1017C000303C0000303C0000343C00002C3C000069
:1017D00068468078612800D099E00E98002801D5ED
:1017E000212000E0401C13901398401C2E903000E4
:1017F00039000022002300F047FD02A830C802D2C1
:101800008020000645400198001F019024A90A701D
:1018100024A8461C2E98002832DD2E9F2000290087
:10182000002280235B0300F048FD29D81C2200F031
:101830005DFD04000D0000F091FD2E90FF1F002FB4
:1018400009DD00F0C5FD02000B002000290000F0BA
:1018500026FE04000D00F01D07212E9A002A0ADD45
:10186000491E08D4401E13071B0F03701211F5E721
:10187000401E00220270491EFAD5C61D002FCDDC85
:1018800024A82F99711A24AA551C139A0C0091426E
:1018900000DD1400002C33D48C4205DA411C095DB4
:1018A000082901DB0F2100E00021220024AB9B1856
:1018B00001E0641E5B1E521E1E788E42F9D00F2975
:1018C00004D1411C895C491C401C8154002A04D568
:1018D00024AD641C0198001D0190611E10D46A188B
:1018E0006846007813783033DEB23A2E01DBC31835
:1018F000C6331370491E521E0029F3D5694608707D
:101900000E98002800D4B9E0601E0E90B6E07F006B
:101910007F08019868494843684900F04DFE0190EE
:1019200007200199401A002805DD02003000390027
:1019300000F072FB0AE042420020614900F06CFBBB
:1019400002000B003000390000F090FE6A469278E9
:10195000662A02D1019A0A3200E006220E9B9A18EA
:10196000142A00DD142224AB30241C705C1C02E01D
:1019700030A803C8139A002A40DD30AB03C313928A
:1019800030A803C800F0FCFC2E900646083404255D
:1019900030000A2100F013FE0F0030000A2100F091
:1019A0000EFE06003037601E077030000A2100F07E
:1019B00006FE0F0030000A2100F001FE0600A41E02
:1019C000303727706D1EE3D1083413980838139010
:1019D0000028CDDD2E9800F0EBFC02000B0030A8B3
:1019E00003C800F05CFD0022364B00F0A0FE30AAD8
:1019F00003C2C5E7FFFFFFFFFFFFFF7F2F98201AFD
:101A000024A94D1C04E0401E0199491E01916D1C42
:101A100029783029F7D069468978662902D1019959
:101A2000491C06E069468978652901D1149900E0CE
:101A300000210E9A5418A04200DA441E002C1DD436
:101A4000844204DA285D342801DD392100E03021A8
:101A50002200681E831801E0641E5B1E521E1E7861
:101A60008E42F9D0392902D1A95C491CA954002A17
:101A700004D50500641C0198401C0190019E13953B
:101A8000684600786946487000F014FF406A0078A4
:101A9000694608700E9D20B2002804DC149C05489D
:101AA0007844103013906846807866280CD1761CF4
:101AB00024E000BF4C39000097750000A0860100AB
:101AC0000000F03F84D7974168468078672846D168
:101AD00030B20321C943884247DBA84245DA761C6D
:101AE00002A8008F1299C0B2084203D120B2A842C6
:101AF00000DC050030B22D1A00D5002537B2002FCA
:101B000000DDBAE00898411C08913021059A115473
:101B1000002D05DC02A8008F1299C0B2084206D041
:101B20000898411C089169460978059A1154784231
:101B3000854200DA6E4236B270420B90AD1920B287
:101B4000854200DA2C0024B20994220013990598EA
:101B5000089BC01800F04EFB281B0C90DAE068468A
:101B60004078612818D170201BE020B2A84206DA24
:101B700002A9098F129AC9B2114200D105006D1E47
:101B800000D5002568464078672802D1652069465F
:101B900007E04520694604E068464078412801D1C5
:101BA000502048700898411C089113990978059AAB
:101BB00011541398411C002D05DC02A8008F129AC5
:101BC000C0B2104219D00898421C08926A46127896
:101BD000059B1A54002D10DD641E20B2854200DAE8
:101BE0002C0022B20598089BC01800F003FB24B219
:101BF000089800190890281B0B9005980899401820
:101C000069464978017031B2002903D42B21417013
:101C1000871C03E02D224270871C4E42002412AD27
:101C2000300008E00A2100F0C7FC30AA03C2297086
:101C30003098641C6D1C00B20028F3DC012C08DC19
:101C40006846407820210143652902D13020387050
:101C50007F1C002C09D1302038707F1C07E0641EE7
:101C600012A8005D303038707F1C002CF7DC05981E
:101C700008994018381A09904CE020B231B28842D5
:101C80001DDA22B213990598089BC01800F0B2FA29
:101C900024B2089800190890391B0B91002D05DC1F
:101CA00002A9098F129AC9B2114206D06946097871
:101CB000059A11540998401C09900C952AE032B2FB
:101CC00013990598089BC01800F094FA0898C01959
:101CD0000890A41B002D05DC02A9098F129AC9B235
:101CE000114205D0411C089169460978059A1154A2
:101CF00020B2854200DA2C0022B21398C11905984F
:101D0000089BC01800F076FA24B2089800190890D1
:101D1000281B0B9002A83821405C14210140102997
:101D200000D0C2E00798089940180B99401809990B
:101D300040180C9940180F99884200DBB5E0081A4A
:101D40000A90B2E002AA3A20105C622808D0682803
:101D50000ED06A2814D06C281DD0712810D01AE03B
:101D6000349801680868091D349B1960C0B218E0F6
:101D7000349801680868091D349B196080B210E02E
:101D800034980368DB1D072083433498036003CB3A
:101D9000349C236006E0349801680868091D349B70
:101DA0001960002102AB03C3108F1299C0B2084220
:101DB0005BD002A803C8002901D1002855D068468D
:101DC00000782021014378294FD1079815A93022A6
:101DD0000A54401C421C07926A4612780A5444E096
:101DE00002AA3A20105C622808D068280ED06A281F
:101DF00014D06C281DD0712810D01AE034980168D6
:101E00000868091D349B196040B218E034980168D5
:101E10000868091D349B196000B210E0349803680B
:101E2000DB1D072083433498036003CB349D2B6074
:101E300006E0349801680868091D349B1960C117D1
:101E400002AB03C3002902DA07982D2109E0108FA5
:101E5000204202D007982B2103E0C00705D5079840
:101E6000202115AA1154401C079015A80799401865
:101E700005906846017802A800F03CF815E0149837
:101E80000790349800680168001D349A106015A806
:101E900001700AE0252015A908701498079068467B
:101EA0000078002801D04A7007940F980799401ACB
:101EB0000A99401A0899401A0B99401A0999401A30
:101EC0000C99401A019002A83821405C400701D5C6
:101ED000FFF733FA2020694608700198002801DCDA
:101EE000FFF72BFA019C329DFFF71AFA0020C0433E
:101EF00035B0F0BDF2B586B0040025696F2901D177
:101F0000082707E0084620210143782901D00A2745
:101F100000E010273C2603CC083C04AA03C26A4612
:101F2000127E642A03D06A46127E692A09D10029EA
:101F300007DA04A803C800220023121A8B4104A860
:101F40000CC004A803C800290DD100280BD1206BB8
:101F5000002808D1082F3DD13820205C000739D552
:101F60003B26302035E00294009504A830C8761E48
:101F70000196200029003A00FB1700F0A1FC303246
:101F8000D0B23A280DDA00988255200029003A0094
:101F9000FB1700F095FC04000D0007D1002C05D1C3
:101FA0000AE06846007E8218AF32ECE70298C0680B
:101FB000009989198842DAD3029C009D082F09D123
:101FC0003820205C000705D5A85D302802D0761E99
:101FD0003020A8553C20801BA061A919E160216B2D
:101FE000884206DA081A2062208F1C4901402187A6
:101FF00010E000290ED53821615C14220A40102A15
:1020000008D1616B6269891A226A891A081A002844
:1020100000DD206207B0F0BDF8B50026104F0400C7
:102020000D00009214E0C00707D532003B002000ED
:10203000290000F07CFB04000D0000984010009087
:102040003000390032003B0000F071FB06000F0049
:1020500000980028E7D120002900F4BDEFFF000020
:102060000000244010B503000C001100A068984740
:10207000A060002804D0E06A401CE062002010BD8F
:102080000020C04310BDF8B50024002B11D007007C
:102090000E0014001D002178B068B847B060002819
:1020A00009D0F06A401CF0620020641C6D1EF2D161
:1020B00004002000F2BD0020C043F9E7C9B2027855
:1020C0008A4203D0401C002AF9D10020704730B565
:1020D00001684118446862088A188368E40704D5D7
:1020E0004C461B1901E0641C09D1914203D00C78C5
:1020F00064B2491C01E00C3030BD0D78491C1D70E4
:102100005B1C002CEFD4641EF7D5EEE780B50028E9
:1021100001D100BF07A006490B68002B03D0222283
:102120000021984701E000F009FC222002BD0000D8
:102130004C020020636F6E73747261696E74206864
:10214000616E646C65723A20626164206D657373C0
:1021500061676500431C810705D00178401C094276
:1021600017D08107F9D130B40B4CE50104C8111B1D
:1021700091432942FAD030BCDB1CFF210A4208D02F
:10218000120A5B1E0A4204D0120A5B1E0A4200D0E9
:102190005B1EC01A7047000001010101C9B2521E46
:1021A00005D30378401C8B42F9D1401E70470020B4
:1021B00070472E0070B4103A03D378C9103A78C033
:1021C000FBD2530701D318C918C001D508C908C0EC
:1021D000D20704D30B880380891C801C002A01D5F8
:1021E0000B78037070BC7047521E22D30B78491CC9
:1021F0000370401C8B07F7D18307DBD0DB4219D07B
:10220000401E121F08D308C943701B0A43801B0CD1
:102210000371001D121FF6D2D20707D30B8843703B
:1022200001D08A78C2701B0A8370704701D00B7886
:1022300043707047121F06D308C903801B0C4380EC
:10224000001D121FF8D2D20705D30B88038005D0DA
:102250008B788370704701D00B780370704710B58E
:10226000144600F002F8226010BD4A0053155B1CB2
:1022700008D0520D06D003231B02FE3AD21A1305D2
:10228000C91A70470022704730B4012464054D001C
:10229000EC420BD85D00EC4208D80C001C436400F3
:1022A0000443144304D2994200D1904230BC704799
:1022B000FCD08B42FAD18242F8E730B401246405A5
:1022C0004D00EC420BD85D00EC4208D80C001C43DA
:1022D00064000443144304D28B4200D1824230BCD8
:1022E0007047FCD09942FAD19042F8E7124217D4D5
:1022F0000023DB435B0D9C464B005B0D06D0634522
:1023000004D09B18634502D21205891870476246B3
:10231000090D11430905002000B500BF00BF00BD35
:1023200052424B005B0DF1D05B1C5B05EED25B0DA6
:10233000934102D91205891A70470BD10B031B1365
:10234000C90FC907821C002043411343E4D9120579
:102350001143E1E7C90FC9070020DDE7F4464A1839
:1023600005D200F00FF801D580174008604700F053
:1023700009F80121C907884200D908004042604796
:102380004A1812D2400DC90208430121C907084367
:10239000520D40210901521A521C06D452421F32DA
:1023A00001D4D0407047C017704700207047FEE747
:1023B000010042221201D21E004207D002D4521E56
:1023C0000018FCD5C10A40051205891870470000A5
:1023D0000100EED54042F446FFF7EBFF0122D207A1
:1023E000114360478B4200D1824205D984461000D8
:1023F00062468C4619006346DF184C18640D7F0D49
:102400003AD0661C760537D0E61B352E34DCDB026D
:102410002B43DB0A0C0DC9022943C912202E0DDB08
:102420001700203E06D01F00F741F3405F40002612
:10243000012A7741C01871410DD217E01700F7410A
:10244000F2405740F3415A40B340F3405A4000260F
:10245000801859410AD3A21C52050FD0C207012F80
:10246000724117004008CB0718434908641C240533
:102470004208AF4170416141F0BC7047641C2105C6
:102480000020F9E76B4010E06B40ABE7F742F3D177
:10249000E943F1E72442EFD100200021ECE7F0B45A
:1024A0000125ED070F005F40EED40C00871A9C4118
:1024B00005D2C01BA141D219634169406B40AE0AED
:1024C000DF184C18F442E1D2640D7F0DE2D0E61B18
:1024D000362ED1DCDB022B43DB0AA4460C0DC902ED
:1024E0002943C90A012E28DC04D1D6075208DF0788
:1024F0003A435B08EF0A76429041994114D0394241
:102500003BD1B61940414941761C394204D1761C71
:10251000001849413942FAD0B9436746B74208D951
:10252000A41B24052143A7E70042EAD13642E8D1A3
:10253000A2E7E40AE10700209EE7202E0BDD203E03
:102540001F00F340F7415F40012A002257417E42BD
:10255000984191410BE01700F741F2405740F34199
:102560005A40B340F3405A407E42904199410A0399
:1025700003D2641EB619404149410027641E240558
:102580004208AE4178416141F0BC7047F4460028F2
:1025900004D4494200F013F8404260474042002909
:1025A00005D45FD000F00BF84042494260474942F1
:1025B00000F005F84942604703460B43E6D4002289
:1025C000030A8B420BD203098B4219D243088B4278
:1025D0002ED2411A00D20146524110467047FF22C6
:1025E00009023FD012068B4205D3121209028B4218
:1025F00001D31212090203098B4219D300E0090A20
:10260000C3098B4201D3CB01C01A524183098B42CB
:1026100001D38B01C01A524143098B4201D34B01B4
:10262000C01A524103098B4201D30B01C01A524117
:10263000C3088B4201D3CB00C01A524183088B429E
:1026400001D38B00C01A524143088B4201D34B0087
:10265000C01A5241884200D3401A5241CFD201469B
:102660001046704708B500F06FF908BDF0B40E00D1
:102670005E400125ED072E40B446AE0ADF184C1827
:10268000F4423BD2F74241D2640D43D07F0D38D0A3
:10269000E41BC902DB0229432B43CF0ADB0A0600F5
:1026A000B61A9F4104D2641EB6197F41B6185F4125
:1026B0006812800D24180018844222DCE80C0021E6
:1026C000B6197F41B61A9F4102D2B6185F413F1C2E
:1026D00040414941F4D3241C21DD2405B6197F4132
:1026E000B61A9F4105D33743C60737430026012F4B
:1026F0007041614166463143F0BC7047FCD1F742FE
:1027000005D20020C14349054908F3E704D0002061
:10271000C143F1E77F0DFAD000206146ECE7244287
:10272000FAD1401C61410F03F6D30020E2E7F0B577
:102730000E005E400125ED072E40B446AE0ADF18BC
:102740004C18F44208D2F7420ED2640D01D07F0D2E
:1027500012D100206146F0BD05D1F74201D87F0DAE
:1027600005D10020C143F0BDFBD1640DF9D000209C
:10277000C143490549088FE0E419C902DB02294336
:102780002B43DB0A460DC00231438E4630B487B27C
:1027900095B27D432E0CADB2140C7C43A419260CCB
:1027A000240425439CB27C43A419190C7943270CBB
:1027B000C919A4B20F043C43090C000C97B247435B
:1027C0002E0CBE193543ADB2170C4743360CBF195A
:1027D000A6B2BF193E043543240C3E0C36199FB2F5
:1027E0004743BF19BCB23E0C89191F0C47437F18E1
:1027F0003E043443390C704680B297B247432E0CE6
:10280000BE193543ADB2170C4743360CBF19A6B2FB
:10281000BF193E043543240C3E0C36199FB2474382
:10282000BF19BCB23E0C89191F0C47437F183E04E8
:102830003443390C77463F0C90B278432E0C801904
:102840000604ADB22E43050CA0B22D18120C7A432B
:102850005019020C80B2240CA4189AB27A431219AF
:1028600014042043120C89181B0C7B43C91830BC7C
:10287000EF0A394203D1B61940414941641E6F1233
:10288000BF0DE41B0BDBFF19BC4211DA2405002746
:102890004208AE417841614166463143F0BD641C57
:1028A00005D1401C6141CF0201D34908F4E750E74C
:1028B0005DE7FEE7014870470000000010000020BF
:1028C00012422DD0994231D970B500251B4209D052
:1028D0000C00002112E01100FFF771FE0A00002138
:1028E000002370BD0942F6D0002401264918644136
:1028F000944200D3A41A7641F8D33100012601E0B6
:10290000764109D2001864416D41A41A9D41F7D265
:10291000A4185D41B619F5D3300022002B0070BD1C
:102920001B42CFD108B500F011F808BD01D190428B
:10293000CAD202000B0000210020704780B50120A0
:1029400000F006F801BDFEE77047FEE77047FEE7BE
:1029500080B500BF00BF024A11001820ABBEFBE7E4
:1029600026000200F0B587B08020C00266490A68E0
:1029700002430A6009680840009000981020019006
:1029800001240294039403200490604E01A93000B6
:1029900000F010FD01224021300000F0D7FD684614
:1029A00004709025ED05E40300222100280000F0CA
:1029B000CDFD00221021300000F0C8FD544F3B0037
:1029C00001226946E04800F04DFE01222100280066
:1029D00000F0BCFD782001F0BFF9112069460870B5
:1029E00000222100280000F0B1FD0022102130005B
:1029F00000F0ACFD3B0001226946D34800F032FEF6
:102A000001222100280000F0A1FD782001F0A4F9A6
:102A100036206946087000222100280000F096FD4B
:102A200000221021300000F091FD3B000122694698
:102A3000C54800F017FE01222100280000F086FDA5
:102A4000C8206946087000222100280000F07EFDA1
:102A500001221021300000F079FD3B00012269467F
:102A6000B94800F0FFFD01222100280000F06EFDB2
:102A70003A206946087000222100280000F066FD17
:102A800000221021300000F061FD3B000122694668
:102A9000AD4800F0E7FD01222100280000F056FDBE
:102AA00005206946087000222100280000F04EFD34
:102AB00001221021300000F049FD3B00012269464F
:102AC000A14800F0CFFD01222100280000F03EFDCA
:102AD00029206946087000222100280000F036FDF8
:102AE00000221021300000F031FD3B000122694638
:102AF000954800F0B7FD01222100280000F026FDD6
:102B000007B0F0BD000000001410024000040048AF
:102B1000FF0F0000FFB581B02A206946087090259C
:102B2000ED058024240200222100280000F00EFD83
:102B300000221021854800F009FD834F844E3300A8
:102B400001226946380000F08DFD01222100280095
:102B500000F0FCFC002069460870002221002800DB
:102B600000F0F4FC01221021784800F0EFFC330063
:102B700001226946380000F075FD0122210028007D
:102B800000F0E4FC68468088801C694608700022DA
:102B90002100280000F0DAFC012210216B4800F02F
:102BA000D5FC330001226946380000F05BFD0122AC
:102BB0002100280000F0CAFC0020694608700022AD
:102BC0002100280000F0C2FC012210215F4800F023
:102BD000BDFC330001226946380000F043FD0122AC
:102BE0002100280000F0B2FC68468089801C6946FC
:102BF000087000222100280000F0A8FC012210210A
:102C0000524800F0A3FC330001226946380000F06E
:102C100029FD01222100280000F098FC2B206946A4
:102C2000087000222100280000F090FC00221021F2
:102C3000464800F08BFC330001226946380000F062
:102C400011FD01222100280000F080FC00206946CF
:102C5000087000222100280000F078FC01221021D9
:102C60003A4800F073FC330001226946380000F056
:102C7000F9FC01222100280000F068FC6846008968
:102C8000C01C6946087000222100280000F05EFC8C
:102C9000012210212D4800F059FC33000122694621
:102CA000380000F0DFFC01222100280000F04EFC7B
:102CB00000206946087000222100280000F046FC30
:102CC00001221021214800F041FC33000122694615
:102CD000380000F0C7FC01222100280000F036FC7B
:102CE0006846008AC01C694608700022210028003E
:102CF00000F02CFC01221021144800F027FC3300C6
:102D000001226946380000F0ADFC012221002800B4
:102D100000F01CFC2C2069460870002221002800CD
:102D200000F014FC00221021084800F00FFC3300D2
:102D300001226946380000F095FC0122210028009C
:102D400000F004FC05B0F0BD1401002000040048B0
:102D5000FF0F0000F1B582B02A2069460870902567
:102D6000ED058024240200222100280000F0EEFB63
:102D700000221021A14800F0E9FBA14B0122694685
:102D8000A04800F06FFC01222100280000F0DEFBCB
:102D9000002669460E7000222100280000F0D6FBB4
:102DA00001221021954800F0D1FB954B0122694684
:102DB000944800F057FC01222100280000F0C6FBD7
:102DC00002206946087000222100280000F0BEFBA6
:102DD00001221021894800F0B9FB894B0122694684
:102DE000884800F03FFC01222100280000F0AEFBE3
:102DF00069460E7000222100280000F0A7FB012286
:102E000010217E4800F0A2FB7D4B012269467D48DF
:102E100000F028FC01222100280000F097FB81200F
:102E20006946087000222100280000F08FFB012273
:102E30001021724800F08AFB714B012269467148EB
:102E400000F010FC01222100280000F07FFB2B2065
:102E50006946087000222100280000F077FB00225C
:102E60001021664800F072FB654B012269466548F7
:102E700000F0F8FB01222100280000F067FB694602
:102E80000E7000222100280000F060FB01221021BA
:102E90005A4800F05BFB5A4B01226946594800F042
:102EA000E1FB01222100280000F050FB03206946CD
:102EB000087000222100280000F048FB01221021A8
:102EC0004E4800F043FB4E4B012269464D4800F04E
:102ED000C9FB01222100280000F038FB684606707B
:102EE00000222100280000F031FB0122102143487C
:102EF00000F02CFB424B01226946424800F0B2FB35
:102F000001222100280000F021FB82206946087080
:102F100000222100280000F019FB0122102137486F
:102F200000F014FB364B01226946364800F09AFB4C
:102F300001222100280000F009FB2C2668460670BB
:102F400000222100280000F001FB002210212B4864
:102F500000F0FCFA2A4B012269462A4800F082FB65
:102F600001222100280000F0F1FA684606700022D4
:102F70002100280000F0EAFA002210211F4800F08A
:102F8000E5FA1F4B012269461E4800F06BFB012247
:102F90002100280000F0DAFA8020019068460589B7
:102FA000174E184F8024280A694648700D70002279
:102FB000802109029020C00500F0C8FA01221021EA
:102FC0000E4800F0C3FA3300012200A9491C380062
:102FD00000F048FB330001226946380000F042FB54
:102FE0000122D1039020C00500F0B0FA641EDAD1AE
:102FF0000198401E0190D5D103B0F0BD00040048F7
:10300000FF0F000014010020FCB593B01A9A0023B2
:10301000039314AC2488240A6D466C8313AC248873
:10302000240A2C836C4621841A920792040090256E
:10303000ED05DC4EDC4F45E12A206946087280240C
:10304000240200222100280000F080FA0022102132
:10305000D64800F07BFA3300012202A9380000F0C4
:1030600001FB01222100280000F070FA00206946CF
:10307000087200222100280000F068FA01221021C5
:10308000CA4800F063FA3300012202A9380000F0B8
:10309000E9FA01222100280000F058FA6846008869
:1030A000801C6946087200222100280000F04EFAB8
:1030B00001221021BD4800F049FA3300012202A983
:1030C000380000F0CFFA01222100280000F03EFA7B
:1030D00000206946087200222100280000F036FA1C
:1030E00001221021B14800F031FA3300012202A977
:1030F000380000F0B7FA01222100280000F026FA7B
:1031000068460088C01C6946087200222100280019
:1031100000F01CFA01221021A44800F017FA330035
:10312000012202A9380000F09DFA012221002800A6
:1031300000F00CFA2B2069460872002221002800BA
:1031400000F004FA00221021984800F0FFF9330043
:10315000012202A9380000F085FA0122210028008E
:1031600000F0F4F9002069460872002221002800CE
:1031700000F0ECF9012210218C4800F0E7F933004F
:10318000012202A9380000F06DFA01222100280076
:1031900000F0DCF968464088C01C694608720022CD
:1031A0002100280000F0D2F9012210217F4800F010
:1031B000CDF93300012202A9380000F053FA0122B0
:1031C0002100280000F0C2F90020694608720022A0
:1031D0002100280000F0BAF901221021734800F004
:1031E000B5F93300012202A9380000F03BFA0122B0
:1031F0002100280000F0AAF968464088001D6946B1
:10320000087200222100280000F0A0F901221021FC
:10321000664800F09BF93300012202A9380000F053
:1032200021FA01222100280000F090F92C206946A3
:10323000087200222100280000F088F900221021E5
:103240005A4800F083F93300012202A9380000F047
:1032500009FA01222100280000F078F96846408B25
:103260006946487214A800880872002221002800CC
:1032700000F06CF9012210214C4800F067F933008E
:10328000012202A9491C380000F0ECF933000122A8
:1032900002A9380000F0E6F901222100280072E0BE
:1032A00068464088401C0599491C05910499491EAF
:1032B000049122D1099C0398401C0390083407987C
:1032C000401C07901A98FEF745FF0399814212D2DD
:1032D00007980078A1280EDA102235490001091854
:1032E0000AA8FEF787FF0AA96846008C10220994F5
:1032F0000591049201E015B0F0BD002101910999FA
:10330000059A12786B469A726A461180694648801F
:103310006846807A8021019A93105B0F9B18DB101E
:10332000DB00D21AD140084200D185E668464388C6
:103330005B1C9BB20288521C92B241880088FFF746
:10334000E9FB6846008B6946487213A8008808723A
:10335000002280210902284600F0F8F801221021FD
:10336000124800F0F3F83346012202A9491C3846FE
:1033700000F078F93346012202A9384600F072F9CC
:103380000122D103284600F0E1F80198401C019089
:1033900068460088401C6946088001980828B7DB09
:1033A0007EE70000FF0F0000140100200004004829
:1033B000BC000008F0B484B000220F2302930B6815
:1033C000002B00D1BFE0012494400B68234000D1C2
:1033D000B4E055006E46357003253678B540EE43AF
:1033E00001964D68AE07B60F012E03D0AD07AD0FA5
:1033F000022D11D18668019D3540CE686F463F7819
:10340000BE402E43866046680125A6434C682409C9
:10341000254095403543456003244D682540032DE4
:1034200026D0C668019D35408E686F463F78BE4005
:103430002E43C6604D682540022D19D1D508AD0038
:1034400045192E6A039697001C263E406F467E70F3
:10345000039EB446029F6E467678B7406646BE43EA
:10346000B4460F696E467678B740664637432F629A
:103470000668019D35404E6826406F463F78BE4045
:103480002E4306604D6826042E4057D00125324E4B
:1034900036682E43304F3E603E682E400096009EB8
:1034A0002E4E9708BF00F6190196366803960C2633
:1034B00097003E406F463E70039EB446029F6E46A4
:1034C0003678B7406646BE439027FF05B84201D123
:1034D00000240DE0224FB84201D1012408E0214D23
:1034E000A84201D1022403E01F4DA84200D00524C8
:1034F0006D462D78AC403443019D2C601B4C2668F2
:10350000DC4326404D68ED0300D51E43174D2E6069
:103510006E6826404F68BF0300D51E436E60AE68DC
:1035200026404F68FF0200D51E43AE60EE6834406F
:103530004E68B60201D523431C00EC60521C0B6898
:10354000D34000D03FE704B0F0BC7047002A01D060
:103550008161704781627047181002400800014085
:103560000004004800080048000C00480004014026
:10357000F0B581B0040001D101206FE00025606A40
:10358000002806D1606882214900884203D0E561A5
:1035900001E025616561A56226005C36707800282F
:1035A00003D13570200000F011FC022070702168FA
:1035B0000A6840239A430A60E268E023DB009A42EB
:1035C00005D90021F0231B019A4203D103E0C10277
:1035D0009A4200D0A5620122636882277F001F40C3
:1035E000BC46A76884231B023B4067463B432769D0
:1035F00038401843636913400343A06957023840B9
:103600001843277F38233B4003432020205C80273A
:1036100038401843A36A57033B40034320680360C4
:10362000A069030C042003402420205C10273840AC
:1036300018433423E35C08273B400343E068F0274A
:103640003F0107401F433943206841602068C1693A
:10365000034B0B40C36175607270002001B0F0BD78
:10366000FFF7FFFFF8B584B007000C0000206946A3
:10367000087038004430007E012801D1022088E122
:103680001500012039004431087600F0EBFB2900D9
:103690003A004432527E012A01D002206FE1002C10
:1036A00000D16BE12A0000D168E103223B004433E2
:1036B0005A7600223B004433DA61BC63BD87FD8744
:1036C0003A6444243A533C00443462803B0044331F
:1036D000DA603B0044339A60BA6880231B029A4246
:1036E00009D13A6813684024A34313603A68136809
:1036F00024021C4314603A68402314681C4002D121
:103700001468234313607A68049DFB68A24CA342AB
:103710002FD3002A01D0012909D1B96B09883A6851
:10372000D160B96B891CB963F98F491EF9873C00D8
:10373000070008E0A16B0988C160A06B801CA06332
:10374000E08F401EE087E08F002840D0206881682D
:103750008907EFD400F086FBC01BA84206D30020E7
:10376000C0438542EFD02700032008E1002DEAD1B5
:10377000F9E7002A01D0012909D1B96B09783A6823
:103780001173B96B491CB963F98F491EF9873C0065
:10379000070008E0A16B09780173A06B401CA063CF
:1037A000E08F401EE087E08F002810D020688168FD
:1037B0008907EFD400F056FBC01BA84204D30020B9
:1037C000C0438542CFD1EEE7002DECD1CBE70020FE
:1037D0006946487000F046FB281AC61900F042FB03
:1037E0006E49096823225143090D714301910290EA
:1037F00006E00198002800D100260198401E0190A3
:103800000020C04321688968C02252010A400BD0C1
:103810008542F5D000F026FB0299401AB04201D251
:10382000002EE6D1270061E000F01CFB281AC61923
:1038300000F018FB594909684901090D71430191CC
:1038400002940495040006E00198002800D10026A7
:103850000198401E01900020C043029909688968C0
:1038600009060BD504998142F5D000F0FBFA001B44
:10387000B04201D2002EE7D1029F37E00020694616
:103880004870049C00F0EEFA201AC61900F0EAFA1B
:10389000029909680C31414A126823235A43120DD8
:1038A00072430192C024E4000025ED43029F03907F
:1038B000029106E00198002800D100260198401EE0
:1038C000019038688068204049D0029800786946A5
:1038D0004870684640780498A842F2D000F0C2FAD6
:1038E0000399401AB04201D2002EE3D138684168F2
:1038F000E0229143416078688221490088420CD1DE
:10390000B86880210902884202D04909884204D15E
:103910003868016840229143016080208001B96AC3
:10392000814208D139680A681D4B13400B60396821
:103930000A681043086001203900443148760020AD
:1039400039004431087638004430C06920210143F1
:1039500038004430C161202039004431C861B86862
:10396000002806D101903868C168019180680190F3
:10397000019838004430C069002802D0012069460F
:1039800008703800443001214176002101766846F4
:10399000007805B0F0BD0000010700000C00002019
:1039A000FFDFFFFFF2B584B0040017000120029092
:1039B00000206946087020004430007E012801D1B3
:1039C0000220BFE11D00260044360120307600F0C1
:1039D00049FA0190717E280001290BD06268822388
:1039E0005B009A4204D1A268002A01D1042901D0C7
:1039F000022089E00499002903D0002F01D02A0079
:103A000001D1012080E022004432527E042A03D0FA
:103A10000522230044335A76002223004433DA611E
:103A200027642200443255804422A552A163E587D1
:103A3000A587002122004432916022004432D160E7
:103A40002268C149E3688B42536802D3BF4D1D40D1
:103A500002E080256D011D435560226840231568F2
:103A60001D4002D115682B43136062680A9DE3680C
:103A70008B424CD3002A01D0012809D1A06B0088C9
:103A80002168C860A06B801CA063E08F401EE087A7
:103A9000029E019FE08F002805D12000443040881D
:103AA000002800D17FE02068816889070ED5E18F6A
:103AB00000290BD0002E09D0A16B0988C160A06B32
:103AC000801CA063E08F401EE08700262068012153
:103AD00082680A400ED0220044325388002B09D05D
:103AE000C068236C1880206C801C20645088401EA5
:103AF0005080012600F0B6F9C01BA842CAD30020AE
:103B0000C0438542C6D003206946087012E1002AEE
:103B100001D0012809D1A06B007821680873A06B3F
:103B2000401CA063E08F401EE087029E019FE08F53
:103B3000002804D1200044304088002833D0206879
:103B4000816889070ED5E18F00290BD0002E09D09E
:103B5000A16B09780173A06B401CA063E08F401E2D
:103B6000E08700262068012182680A400ED02200EA
:103B700044325388002B09D0007B236C1870206CD2
:103B8000401C20645088401E5080012600F06AF9D5
:103B9000C01BA84204D30020C0438542B3D1C6E76E
:103BA000002DC4D1AFE700206946487000F05AF9F3
:103BB000281AC61900F056F96549096823225143AD
:103BC000090D71430191029006E00198002800D18F
:103BD00000260198401E019020688068C02149019C
:103BE00001400CD00020C0438542F5D000F03AF9E6
:103BF0000299401AB04265D2002EE6D162E000F090
:103C000031F9281AC61900F02DF9514909684901FE
:103C1000090D7143019102940A95040006E0019890
:103C2000002800D100260198401E01900020C043CA
:103C300002990968896809060BD50A998142F5D06D
:103C400000F010F9001BB04201D2002EE7D1029C17
:103C500038E00020694648700A9C00F003F9201AF9
:103C6000C61900F0FFF8029909680C31384A126849
:103C700023235A43120D72430192C024E40000250D
:103C8000ED43029F0390029106E00198002800D1C5
:103C900000260198401E019038688068204048D076
:103CA0000298007869464870684640780A98A842A9
:103CB000F2D000F0D7F80399401AB04201D2002E9A
:103CC000E3D13C0020684168E02291434160606894
:103CD0008221490088420CD1A068802109028842D3
:103CE00002D04909884204D12068016840229143EA
:103CF000016080208001A16A814208D121680A68A0
:103D0000144B13400B6021680A68104308602000C0
:103D100044300121417600210176C16920220A4305
:103D2000C261012069460870202021004431C86129
:103D300000E03C0020004430012141760021017662
:103D40006846007805B0F0BD01070000FFEFFFFFF7
:103D50000C000020FFDFFFFF30B581B0050000F050
:103D600081F804000020C043854202D00448007856
:103D70002D1800F077F8001BA842FAD301B030BD2F
:103D80000000002000B581B0314832490160822135
:103D90004900416000218160E022D200C2600161DF
:103DA00041618022920082612022C26101624162EF
:103DB00081620722C262016308214163FFF7D8FBD9
:103DC000002801D000F008F901B000BD10B586B0A0
:103DD00004001422002101A800F054F920681D49B4
:103DE00088421ED11C48810C42680A4342604268E6
:103DF0001140009100998021C90202680A430260C3
:103E00000068014000910098382001900220029043
:103E10000020039003210491059001A90F48FFF7AA
:103E2000C9FA06B010BD01B582B00020694608711C
:103E30000B480090012301AA02A90548FFF7B2FD33
:103E4000002801D0012001E06846007903B000BDE0
:103E5000140100200030014014100240000400480A
:103E6000FFFF000001484068704700BF00000020CD
:103E700070B598B0002469460C7100F00DF930223D
:103E800000210BA800F0FEF81022002102A800F08B
:103E9000F9F81422002106A800F0F4F811200B9084
:103EA00001250C9510951020119002261396000301
:103EB00014900001159016940BA800F0FFF800284C
:103EC00001D072B6FEE70720029003960494059491
:103ED000012102A800F0F0FA002801D072B6FEE736
:103EE0000695089406A800F0CDFB002801D072B614
:103EF000FEE700F055FC00F0B3FC00F0C9FC00F058
:103F000045FDFFF73FFFFEF72DFD394C2000FEF782
:103F100021FFFA204000FFF71FFF2000FEF71AFFE5
:103F2000F8263602FC25ED0037A000902B00320069
:103F300000210020FFF768F838A000902B00320025
:103F400010210020FFF760F839A000902300002224
:103F500020210020FFF758F826A00090230000221F
:103F600020214020FFF750F823A0009023000022DA
:103F700030210020FFF748F820A5009523000022FB
:103F800030214020FFF740F81DA0009023000022C0
:103F900040210020FFF738F800952300002240213F
:103FA0004020FFF731F801A9422000F059FD00BF81
:103FB00026A468460079122802D000BF1EA000E0A7
:103FC00028A000F065FD68460179200000F060FD42
:103FD00028A000F05DFDFEE772B6FEE74021094A29
:103FE00013680B40FCD0C1B2918170470000000003
:103FF000E0FF00003330000052583A0032353500FF
:10400000545800001C3801402020204C6F52612081
:10401000546F706F6C6F6779202020002020202063
:1040200020204D6173746572202020202020000024
:10403000535349443A0000004C6F5261207265614D
:1040400064204572726F72210D0A00004C6F52613C
:104050002052656756657273696F6E203D20256436
:10406000210D0A004C6F52612072656164204F4B34
:10407000210D0A0073797374656D20696E6974206F
:104080006F6B210010B50400080011000200200031
:1040900000F012FD200010BD00B581B00648016897
:1040A00010220A430260032000F02EFD00F050FDB4
:1040B000002001B000BD000000200240F1B582B038
:1040C000002800D1EEE1AD4C0078C00716D50C20D9
:1040D00061680140042909D061680840082849D175
:1040E0008020400261680140814243D12068800302
:1040F00004D502984068002800D1D3E102980078E6
:1041000080071AD50C206168014006D0616808401C
:1041100008286DD16068C0036AD42068800704D580
:104120000298C068012800D0BCE12068F8218843CB
:1041300002990969C90001432160029800780007CB
:1041400000D495E00298C0690028606A00D17FE041
:10415000012101436162FFF785FE06000225606AC6
:10416000284000D084E0FFF77DFE801B0228F6D9AE
:1041700003209AE102984068012804D12068802138
:104180004902014315E0002801D120680BE0052811
:10419000206808D18021C902014321602068802164
:1041A0004902014305E076490140216020687549D4
:1041B000014021608025AD020298406800280BD0A4
:1041C000FFF750FE06002068284097D1FFF74AFE0F
:1041D000801B6528F7D3CBE7FFF744FE0600206875
:1041E00028408BD0FFF73EFE801B6528F7D3BFE742
:1041F0000298C0680028206819D00121014321607D
:10420000FFF730FE0225029E07002068284005D1F6
:10421000FFF728FEC01B0228F7D9A9E72068F8217C
:1042200088433169C90001432160029685E7012175
:1042300088432060FFF716FE06000225206828400C
:1042400000D17AE7FFF70EFE801B0228F6D98FE730
:10425000012188436062FFF705FE06000225606ABF
:10426000284005D0FFF7FEFD801B0228F7D97FE725
:10427000042502980068284063D000200090A8061A
:10428000E169014008D1E1690143E161E169084068
:10429000009000980120009085480068C00510D467
:1042A000834F3868A10D01433960FFF7DBFD06003D
:1042B0003868C00505D4FFF7D5FD801B6528F7D306
:1042C00056E702988068012808D0002801D1206AAA
:1042D00009E00528206A06D128432062206A0121CE
:1042E0000143216205E0012188432062206AA8433E
:1042F00020620298806800280FD0FFF7B3FD6D4957
:10430000019102270600206A384013D1FFF7AAFD69
:10431000801B01998842F6D32AE7FFF7A3FD654F7A
:104320000600206A800705D5FFF79CFD801BB84278
:10433000F7D31DE70098002803D0E069A8490140A1
:10434000E16102980078C00626D5029840690128EC
:1043500041D1606B05436563606B0121014361637B
:10436000FFF780FD0225029E0700606B28400BD1FD
:10437000FFF778FDC01B0228F7D9F9E600100240CC
:10438000FFFFFEFFFFFFFBFF606BF8218843B16971
:10439000C9000143616302960298006A002800D1B7
:1043A00082E061680C220A40082A63D08025AD04AF
:1043B0008C49022820684FD101402160FFF752FD4F
:1043C000029E07002068284028D0FFF74BFDC01B45
:1043D0000228F7D9CCE60421C9438842606B0AD190
:1043E00001406163606BF821884302998969C900C3
:1043F00001436163D0E705436563606B0121884336
:104400006063FFF72FFD06000225606B2840C3D0D4
:10441000FFF728FD801B0228F7D9A9E6E06A0F21E3
:104420008843F16A0143E162606883490140B06AF0
:104430000843716A01436160206869080143216093
:10444000FFF710FD0600206828402DD1FFF70AFD78
:10445000801B0228F7D98BE601402160FFF702FD9F
:104460000600206828401FD0FFF7FCFC801B0228B4
:10447000F7D97DE6012815D06068E16A80225202F2
:104480000240029B5B6A9A420CD10907090F029A0B
:10449000D26A914206D1F021890301400298806AD4
:1044A000814201D0012000E0002003B0F0BD0000F7
:1044B0000070004089130000F0B581B005005CD0A9
:1044C000009101275D480068384088420AD25B4865
:1044D0000168B943009A0A430260006838400099B5
:1044E00088424AD12968564C022001420CD0490723
:1044F00004D56168E022D2000A4362606168F0225C
:104500009143AA680A4362602968394025D06968E6
:10451000012902D12068800303E0022903D1206829
:10452000800103D429E02268104026D0606803226D
:10453000904301436160FFF795FC060060680C2121
:10454000014068688000814207D0FFF78BFC801B28
:104550003C498842F2D3032040E038480099026881
:104560003A4091420BD20168B943009A0A43026073
:10457000006807400098874201D001202EE028788B
:10458000400705D5606830490140E868084360602D
:1045900060680F250C210140082912D131A1820C3D
:1045A0002A408E5CE16AC00307D5284831A2294021
:1045B000515CFEF704F8704304E0254846433000A0
:1045C00000E022482349626812091540495DC8404D
:1045D00021490860032000F097FA002001B0F0BDE7
:1045E000FFFFFFEFFFFFFFFE10B51C4802680C2124
:1045F0001140082913D10F211AA3940C0C401C5D03
:10460000836AD00307D511481AA21940515CFDF7FF
:10461000D6FF604310BD0E484443200010BD0B4838
:1046200010BD0D4800680E490C4A12685205520F21
:10463000895CC84070470000FFFFC2FF00200240B5
:104640000010024089130000FFF8FFFF00127A00FB
:1046500000093D00405500080C00002004100240F5
:104660006055000802030405060708090A0B0C0D33
:104670000E0F10100102030405060708090A0B0CAF
:104680000D0E0F10F0B583B004003F4D2068C0033D
:104690005BD50027802040052968014007D12968A3
:1046A0000143296029680840009000980127374895
:1046B0000068C00513D435480068A90D014333488C
:1046C0000160FFF7CFFB060030480068C00506D444
:1046D000FFF7C8FB801B6528F6D3032051E0C020FC
:1046E00080006968014024D062681040814220D077
:1046F0006968274808406968802252020A436A6054
:104700006968244A0A406A606860C00711D5FFF7EB
:10471000A9FB2149019102210091060068680099D6
:10472000014006D1FFF79EFB801B01998842F5D31B
:10473000D3E7686816490140606808436860002F45
:1047400003D028681549014029602078C00705D5A5
:10475000686903218843A168014369612078800664
:1047600005D5686910218843E168014369612068C3
:10477000400505D568694021884321690143696185
:10478000002003B0F0BD00001C100240007000408B
:10479000FFFCFFFFFFFFFEFF89130000FFFFFFEF9D
:1047A000F0B587B0142200216846FFF76BFC80212A
:1047B000C903274802680A43026002681140059154
:1047C00005998021890202680A430260026811404B
:1047D000059105998021C90202680A4302600068B8
:1047E0000140059105981B4C9027FF0501222100EF
:1047F0003800FEF7ABFE184E002247213000FEF7CE
:10480000A5FE1648009000250195029569463800DE
:10481000FEF7D0FD009401240194029503956946AA
:104820003800FEF7C7FD47200090019402950395DC
:1048300069463000FEF7BEFDC020400000900195A3
:10484000029569463000FEF7B5FD07B0F0BD00BF28
:104850001410024080800000000400480C19000081
:1048600000B581B0012009490A6802430A6009685D
:10487000084000900098002200210A2000F080F9F2
:104880000A2000F09BF901B000BD00BF14100240E7
:10489000F0B583B00C2200216846FFF7F3FB384CDB
:1048A0003848206000266660A660E6600125256124
:1048B00004276761A661FF20C230E06126622421DF
:1048C0006654A562200000F0A3F9002801D0FFF78C
:1048D00083FB0096280301900004029069462000A3
:1048E00000F052FA002801D0FFF776FB00956946E8
:1048F000200000F049FA002801D0FFF76DFB009777
:104900006946200000F040FA002801D0FFF764FB60
:10491000062000906946200000F036FA002801D0F9
:10492000FFF75AFB03B0F0BD10B586B004001422A7
:10493000002101A8FFF7A6FB2068124988421CD17C
:104940001148410D42680A4342604268114000919B
:1049500000998021890202680A43026000680140D0
:1049600000910098532001900320029000200390B2
:1049700001A99020C005FEF71DFD06B010BD000086
:104980000C020020002401401410024000B581B048
:104990002E482F490160E1214902416000218160D8
:1049A000C16001610C2242618161C16101624162A9
:1049B00000F090FA002801D0FFF70EFB01B000BD17
:1049C00070B586B004001422002101A8FFF75AFB3D
:1049D00020681F49884236D11E488021C90142689B
:1049E0000A43426042681140009100998021890287
:1049F00002680A4302600068014000910098C020EC
:104A0000C00001900220029000250395032004902D
:104A10000120059001A99020C005FEF7CBFC0E4EA9
:104A20000E4830607560B5608020F060356175615A
:104A3000B561F561300000F025FC002801D0FFF7DA
:104A4000CBFA2667746206B070BD000090000020AB
:104A50000038014014100240C8010020300002401C
:104A600070B504000E009025ED050022802128007D
:104A7000FEF76CFD6006400EFFF7D5F90020FFF74A
:104A8000D2F93070012280212800FEF75FFD70BD51
:104A90000EB4C0B5020003A801900020009001AB45
:104AA0000121044878440C30FCF70AFB029906B057
:104AB000084700BF610A00001206130A1A43130CCC
:104AC0001A4300BF094205D0830705D00270401C7D
:104AD000491EF9D1704700001300103906D330B4D5
:104AE0001400150010393CC0FCD230BC490700D37B
:104AF0000CC000D504C0890002D30280801C0029AC
:104B000000D502707047FEE730B581B005000E4C4D
:104B1000FA2080002178FDF752FD01000B48006863
:104B2000FDF74DFD00F053F800280AD1042D08D2FE
:104B3000002229000020C04300F022F8A5600020D8
:104B400000E0012001B030BD000000200C0000207A
:104B500081B0012009490A6802430A600A681040CE
:104B600000900098802040054A6802434A604968E6
:104B700008400090009801B0704700BF1810024034
:104B800010B4C20018231340FF249C40E24389075D
:104B9000090E9940030004D417489B089B00C018D5
:104BA00006E0164B0007000F083880088000181830
:104BB00003681A401143016010BC7047010005D41E
:104BC0000121C006C00E81400D4801607047401EA3
:104BD0000C49884201D9012070470B4948600B48B5
:104BE00002681202120AC0231B061343036000204E
:104BF000886007220A60704700E400E01CED00E0D6
:104C000000E100E0FFFFFF0010E000E020ED00E029
:104C1000F0B581B004000025002C01D10120ABE0EB
:104C2000A06B002805D1E063342160542000FFF719
:104C30007BFE1021A06B084000D098E02368042080
:104C40009A68024000D092E0A26B4C4E16400222BD
:104C50003243A26301229E68B607B60F012E05D12A
:104C60001E6816400FD1DE6836040CD4DE681827A3
:104C7000BE43A7683743DF6023681E69B600B608E5
:104C8000676837431F612368DE683D4F3740DF6048
:104C9000A36A012B01D0860200E000262369022BC3
:104CA00001D1009000E00095A37E207E8003677E06
:104CB000FF030743580338430643E0683043009E30
:104CC00006432420205C40003043E67E012E0CD1B8
:104CD000002B03D103000803184306E0A36B202632
:104CE0001E43A663E36B1343E363E369FF26C23607
:104CF000B34202D00343206A18432368DE680643A8
:104D0000DE60E36A0E06B3420DD0012B0BD0022BFE
:104D100009D0032B07D0042B05D0052B03D0062B7D
:104D200001D0072B0CD123685E690727BE435E6163
:104D300023685E692C27E75D7F077F0F37435F613C
:104D40000223DB432668F6680E4F3740874205D1C1
:104D5000E563A06B03401A43A2630CE0A06B034021
:104D60001943A163E06B1043E063012503E0A06BEE
:104D70000143A1630125280001B0F0BDFFFEFFFF44
:104D80001902FEFFE7FF3F83F0B581B00400002564
:104D9000002600953420205C012801D1022088E003
:104DA00001203423E054226893685B0779D40B68B0
:104DB00098404B68404FBB42936A5FD01843906263
:104DC000E06A8022520590421DD001281BD00228A3
:104DD00019D0032817D0042815D0052813D0062889
:104DE00011D007280FD0226807208B685769074029
:104DF000BB4208D0536983435361226853698F686B
:104E00003840184350610868102831D0112832D03A
:104E100012284BD180204004284A136818431060A0
:104E20000868102842D1264800682649FDF7C7FBCC
:104E300081000818400000900098002836D00098A3
:104E4000401E00900098002830D00098401E00902E
:104E5000009800282AD00098401E00900098002852
:104E600024D00098401E0090009800281ED0E6E74D
:104E700080200004D0E78020C003CDE78343936205
:104E80000868102809D0112809D012280ED10E491F
:104E90000A4802681140016008E00C49F8E70C4933
:104EA000F6E7A16B20220A43A26301263420255491
:104EB000300001B0F0BD00000110000008270140E3
:104EC0000C00002040420F00FFFFFFFEFFFF7FFFAE
:104ED000FFFFBFFFF0B581B0060014D0340074347A
:104EE0006068002803D120703000FFF769FD24209E
:104EF000606030680168012291430160300000F079
:104F0000B5F8012801D10120A9E0706A002802D07B
:104F1000300000F030F930684168524A0A4042607F
:104F2000306881682A2291438160306801680122DB
:104F30000A4302600025E560FEF794FF0700306831
:104F40000068000750D53068C06980024CD4FEF775
:104F500089FFC01B80218904884229D230680068FB
:104F60004007F0D5880B3168C9690140EBD0316842
:104F70000862EFF31080012181F3108831680A681C
:104F8000394B13400B6080F31088EFF31080012140
:104F900081F3108831688A6801239A438A6080F31C
:104FA000108820206060A060E0602570032056E03B
:104FB000EFF31080012181F3108831680A682A4BD1
:104FC00013400B6080F31088EFF31080012181F310
:104FD000108831688A6801239A438A6080F31088B8
:104FE00020206060A060E0E730680068400730D5AE
:104FF0003068C06940022CD4FEF734FFC01B80210A
:105000008904884209D2306800684007F0D5880BCF
:105010003168C9690140EBD0A9E7EFF310800121A5
:1050200081F3108831680A680F4B13400B6080F3DE
:105030001088EFF31080012181F3108831688A68AD
:1050400001239A438A6080F3108820206060A0606A
:10505000ABE720206060A06035660020207001B0C2
:10506000F0BD0000FFB7FFFF5FFEFFFF70B505005A
:105070000026002428680168714A0A40A968114383
:105080002A690A4369691143EA690A43026041686F
:105090006C4A0A40E9681143416081686A4A0A40E3
:1050A000A96911432A6A0A438260684988420FD17C
:1050B000674800688007800F0DD0022806D003D310
:1050C00003280AD1022109E0042107E0082105E0B4
:1050D0006049884201D1002100E0102180200002B7
:1050E000EA69824222D1002906D0022919D0042976
:1050F00019D0082904D039E0FFF793FA002836D0F8
:10510000696840004A088018FDF759FA80B2524990
:105110000200103A8A4229D201400007400F08439A
:105120001CE04E48ECE7FFF75FFAE7E7002906D0FE
:10513000022916D0042916D0082904D016E0FFF75A
:1051400070FA002813D069684A088018FDF737FA0A
:1051500080B201001039404A914207D22968C860E4
:1051600005E03E48EFE7FFF73FFAEAE701246E6605
:10517000AE66200070BD2421415CC90706D50168D8
:105180004A68374B1340826A1A434A602421415CC3
:10519000890706D501684A68324B1340C26A1A4330
:1051A0004A602421415C490706D501684A682E4BB4
:1051B0001340026B1A434A602421415C090706D55B
:1051C00001684A68294B1340426B1A434A60242104
:1051D000415CC90606D501688A68254B1340826B7D
:1051E0001A438A602421415C890606D501688A68D1
:1051F000204B1340C26B1A438A602421415C49064C
:1052000011D501684A681C4B1340026C1A434A606E
:10521000026C80235B039A4205D14A68174B134006
:10522000426C1A434A602421415C090606D5016894
:105230004A68134B1340806C184348607047000065
:10524000F369FFFFFFCFFFFFFFF4FFFF00380140CE
:105250003010024000440040F0FF000000127A00CD
:10526000FFFFFDFFFFFFFEFFFFFFFBFFFF7FFFFFD5
:10527000FFEFFFFFFFDFFFFFFFFFEFFFFFFF9FFFDE
:10528000FFFFF7FF10B5040001D1012010BD02207F
:105290002121605420680168114A0A406168114365
:1052A000A2680A43E168114322690A436169114314
:1052B000A2690A43E1691143016020680949401865
:1052C0001421FDF77CF9800020640748E06300208A
:1052D000A06301212122A1542021605410BD0000AF
:1052E0000FC0FFFFF8FFFDBF0000024070B5C16BAB
:1052F000096802681368046C04250426A6400E4061
:1053000010D02B420ED01168890602D41168A9432F
:105310001160016C8D40C16B4D60C16A002939D0AC
:10532000884770BD02250226A6400E4017D02B42AA
:1053300015D01168890606D411680A2399431160B3
:10534000012121228154016C8D40C16B4D600021EF
:1053500020228154816A00291CD0884770BD08250D
:105360000826A6400E4015D01D4013D011680E230C
:10537000994311600121026C01239340C26B536079
:10538000816321228154002120228154016B002954
:1053900000D0884770BDFEE7686A6C747A4C0000E4
:1053A0007072696E74665F733A20256E206469734B
:1053B000616C6C6F776564007072696E74663A2018
:1053C00062616420256E20617267756D656E740080
:1053D0007072696E74665F733A206261642025732F
:1053E00020617267756D656E74000000000000003A
:1053F0006E616E004E414E00696E6600494E460079
:10540000300070B40123002413E00168001D19422C
:1054100002D04D466918491E0C60091D121F042A4E
:10542000FAD20D00960701D50C80AD1C1A4000D0B1
:105430002C700268001D002AE7D170BC7047FEE79F
:10544000FEE7FEE77047704700B581B000F00CF84A
:1054500001B000BD00B581B00248FFF747FF01B0C1
:1054600000BD0000C8010020024841680278891888
:10547000416070470000002010B507497944183199
:10548000064C7C44163404E0081D0A6889188847D5
:105490000100A142F8D110BD080000002400000066
:1054A00063FFFFFFC001000090000020000000002B
:1054B0001FCCFFFFD7000000C80000000000002044
:1054C00000F00DF8002801D0FFF7D6FF00BF00BFA5
:1054D000002000BF00BFFEF7CBFC00F002F8012067
:1054E000704780B500F002F801BDFEE70746384678
:1054F000FDF72EFAFBE7FEE70548014603B46846D0
:1055000080F3098800BF00BF00BF00BFFFF7D8FFCE
:10551000A5EDF5FE38B505000C00200000F006F8FA
:10552000A04200D00025280032BDFEE780B5024928
:10553000FEF754FD02BD00BF480000207047000088
:105540000000000000000000010203040607080933
:1055500001488047014800473D550008F9540008BC
:105560000000000001020304FEE7FEE7FEE7FEE79D
:10557000FEE7FEE7FEE7FEE7FEE7FEE7FEE7FEE703
:10558000FEE7FEE7FEE7FEE7FEE7000001F90000A8
:1055900004FC001E127A008A5500088A5500088A09
:1055A0005500088A5500088A5500088A5500088A5F
:1055B000550008F8FF0BB22100088A5500088A55EB
:1055C0000008FAFF1500000204010178010020C85C
:1055D0000100207801002078010020FC0003780100
:0F55E0000020FC00078C00002078000020E00075
:04000005080054F9A2
:00000001FF
