:020000040800F2
:100000009812002051760008C9740008CB740008CB
:1000100000000000000000000000000000000000E0
:10002000000000000000000000000000CD74000887
:100030000000000000000000CF740008D174000828
:10004000C72800085B2900085F2900086329000809
:100050007F440008835A0008C7740008EB75000845
:10006000F77500082B760008DD7400086976000833
:100070006B7600086D7600086F76000871760008D0
:100080007376000875760008000000007776000897
:10009000797600087B7600087D7600087F76000878
:1000A000817600088376000885760008EB740008E6
:1000B0008776000800000000897600080000000034
:1000C0000000000000000000000000000000000030
:1000D0000000000000000000000000000000000020
:1000E0000000000000000000000000000000000010
:1000F0000000000000000000000000000000000000
:1001000000000000000000000000000000000000EF
:1001100000000000000000000000000000000000DF
:1001200000000000000000000000000000000000CF
:1001300000000000000000000000000000000018A7
:1001400008C80808000000000000000000007F60F0
:1001500060606060606060E060200000000000009F
:10016000000000000000000000000000000018185F
:100170001810101000000000000000000000000037
:10018000000000000808080C0C0C00000000000033
:1001900000000000000000000000000000006C38BB
:1001A00010007CC6701CC67C0000000000001038E7
:1001B0006C00780C7CCCCC760000000000000000C5
:1001C00000007CC670C0C67C00000000000000007B
:1001D00000006C967CD0D66C00000000000000008F
:1001E00000007CC60606C67C000000000000003847
:1001F0006CC6C6FEC6C66C380000000000000000D9
:10020000001038286C44C6C6000000000000000042
:1002100000007CC606FEC67C000000000000000056
:100220000000DC666666F60606663C000000006CB0
:1002300038F80C7EC6C6C67C000000000000000E28
:100240001B18181818181818D870000000000000A3
:1002500000FE860C180C0606C67C0000000076DC4A
:100260000000780C7CCCCC7600000000000076DC2E
:1002700000007CC60606C67C00000000000076DC9C
:100280000000DC6666666666000000000000000094
:10029000000076999F98996F000000000000000010
:1002A000000000000000000C060600000000000036
:1002B0000000000000003C66663C000000000000FA
:1002C0000000000000000000000000000000001816
:1002D0003C3C3C1818001818000000000000C6C67E
:1002E000C644000000000000000000000000006C98
:1002F0006CFE6C6C6CFE6C6C000000000018187CCE
:10030000C6C2C07C0686C67C18180000000000002B
:1003100000C3C60C183063C30000000000000038A2
:100320006C6C3876DCCCCC760000000000003030FD
:100330003060000000000000000000000000001815
:10034000306060606060301800000000000000183D
:100350000C06060606060C1800000000000000004F
:10036000006C38FE386C0000000000000000000047
:100370001818187E1818180000000000000000006F
:1003800000000000001818183000000000000000F5
:10039000000000FE0000000000000000000000005F
:1003A000000000000000181800000000000000021B
:1003B000060C183060C08000000000000000007CC7
:1003C000C6CEDEF6E6C6C67C0000000000000018BF
:1003D000387818181818187E000000000000007CFB
:1003E000C6060C183060C6FE000000000000007C4D
:1003F000C606063C0606C67C000000000000000C95
:100400001C3C6CCCFE0C0C1E00000000000000FE2A
:10041000C0C0C0FC0606C67C00000000000000381A
:1004200060C0C0FCC6C6C67C00000000000000FE24
:10043000C6060C1830303030000000000000007C90
:10044000C6C6C67CC6C6C67C000000000000007C94
:10045000C6C6C67E06060C7800000000000000003C
:10046000181800000018180000000000000000002C
:1004700018180000001818300000000000000006E6
:100480000C18306030180C0600000000000000005E
:1004900000007E00007E0000000000000000006000
:1004A00030180C060C183060000000000000007CC2
:1004B000C6C60C1818001818000000000000007CC8
:1004C000C6C6DEDEDEDCC07C0000000000000010DE
:1004D000386CC6C6FEC6C6C600000000000000FCA0
:1004E0006666667C666666FC000000000000003CF4
:1004F00066C2C0C0C0C2663C00000000000000F838
:100500006C66666666666CF800000000000000FE1F
:1005100066626878686266FE00000000000000FE07
:1005200066626878686060F0000000000000003CCF
:1005300066C2C0C0DEC6663A00000000000000C609
:10054000C6C6C6FEC6C6C6C6000000000000003C07
:10055000181818181818183C000000000000001E99
:100560000C0C0C0C0CCCCC7800000000000000E659
:10057000666C6C786C6C66E600000000000000F0B1
:1005800060606060606266FE00000000000000C6FF
:10059000EEFED6C6C6C6C6C600000000000000C6F5
:1005A000E6F6FEDECEC6C6C600000000000000383B
:1005B0006CC6C6C6C6C66C3800000000000000FC51
:1005C0006666667C606060F0000000000000007CF1
:1005D000C6C6C6D6DE7C0C0E00000000000000FC83
:1005E0006666667C6C6666E6000000000000007CC3
:1005F000C6C660380CC6C67C000000000000007E45
:100600005A1818181818183C00000000000000C6FE
:10061000C6C6C6C6C6C6C67C00000000000000C62E
:10062000C6C6C6C6C66C381000000000000000C672
:10063000C6C6C6C6D6FEEEC600000000000000C654
:10064000C6C66C386CC6C6C600000000000000C6F6
:10065000C6C66C383838387C00000000000000FE48
:10066000C68C183060C2C6FE000000000000003CCE
:10067000303030303030303C00000000000000806E
:10068000C0E070381C0E0602000000000000003CB4
:100690000C0C0C0C0C0C0C3C000000000010386C16
:1006A000C600000000000000000000000000000084
:1006B000000000000000000000FE000000003030DC
:1006C0001800000000000000000000000000000012
:1006D0000000780C7CCCCC7600000000000000E02C
:1006E0006060786C666666DC000000000000000058
:1006F00000007CC6C0C0C67C000000000000001CDA
:100700000C0C3C6CCCCCCC7600000000000000004F
:1007100000007CC6FEC0C67C000000000000001C7B
:100720003632307C303030780000000000000000AD
:10073000000076CCCCCC7C0CCC780000000000E033
:1007400060606C76666666E60000000000000018D7
:10075000180038181818183C0000000000000006A7
:1007600006000E0606060666663C0000000000E075
:100770006060666C786C66E600000000000000387F
:10078000181818181818183C000000000000000085
:10079000000044FED6D6D6D60000000000000000BF
:1007A0000000DC666666666600000000000000006F
:1007B00000007CC6C6C6C67C000000000000000029
:1007C0000000DC6666667C6060F0000000000000EF
:1007D000000076CCCCCC7C0C0C1E0000000000008D
:1007E0000000DC76666060F00000000000000000A1
:1007F00000007CC6701CC67C0000000000000010D9
:100800003030FC303030361C0000000000000000AA
:100810000000CCCCCCCCCC76000000000000000066
:100820000000C6C6C66C38100000000000000000C2
:100830000000C6C6C6D6FE6C000000000000000026
:100840000000C66C38386CC60000000000000000D4
:100850000000C6C6C6C67E060C7800000000000078
:100860000000FECC183066FE000000000000000E04
:10087000181818701818180E000000000000001852
:100880001818180018181818000000000000007050
:100890001818180E181818700000000000000076D4
:1008A000DC0000000000000000000000000000006C
:1008B0000000000000000000000000000000000038
:1008C0000000000000000000000000000000000028
:1008D0000000000000000000000000000000000018
:1008E0000000000000000000000000000000000008
:1010C000FDB5B2B03A98049102A93B2288540020A1
:1010D0000D9024A8401C2F900DE00498329A904760
:1010E0000490002801D100F001FF0D98401C0D90E4
:1010F0003398401C339033980178002910D025296B
:10110000EBD100200790089009900A900B900C906A
:10111000002102240120149008201290339D05E044
:101120000D9800F0E5FE0800149901436D1C287825
:101130002028F8D023280BD02B2804D02D2804D029
:10114000302808D00AE02143F0E708000421ECE74A
:1011500008000821E9E708001021E6E72A280FD156
:10116000349802681068121D349B1A600F90002892
:1011700004D542420F920800042101436D1C12E085
:1011800000200F90654A09E00F9B934205DA9E000C
:10119000F3185B00181830380F906D1C2878030086
:1011A000303B0A2BF0D328782E2803D00020C043F0
:1011B0000E9027E06D1C28782A2808D13498006802
:1011C0000268001D349B18600E926D1C1AE02D28D9
:1011D00002D12D226D1C00E0002200200E900CE0B8
:1011E000002A09D10E9B4D4EB34205DA9E00F3183A
:1011F0005B00181830380E906D1C28780300303BC7
:101200000A2BEDD302A801872E783100414878449B
:10121000FF30C01C00F052FF002801D06D1C00E020
:10122000002602A83A214654405C682804D1287858
:1012300068280BD1622005E06C2807D128786C283B
:1012400004D1712002A93A2288546D1C15A8069079
:10125000287869460870681C339068460278100048
:10126000253833D01C3800D118E2001F022800D8DE
:1012700014E2133801D100F065FD093800D10DE208
:10128000801E01D100F0FBFD401E01D100F0A8FD41
:10129000401E022800D801E2001F01D100F0A0FD8D
:1012A000401F00D153E1401E01D100F04BFD401E14
:1012B00000D1F3E0C01E10D0801E01D100F042FD2D
:1012C000C01E01D100F03EFD00F0E4FD252015A96F
:1012D00008701498079000F0E8FD349800680468DE
:1012E000001D349908600594002C00D0C2E002A8CB
:1012F0003B21405C002800D1B5E00024E4430648CF
:101300007844143000F002FF201A01D000F0EEFD06
:1013100000F0CBFD486100007C610000CBCCCC0C20
:1013200001236A4602A9280000F0ADFE002801D082
:1013300000F0DCFD641EF3D13295079D15AC002D45
:101340000FD0329E227802A9300000F08BFE0028D8
:1013500002D4641C6D1EF5D13296002801D000F035
:10136000C5FD3020694608700A9C002C0DDD329DB9
:1013700001236A4602A9280000F085FE002801D05A
:1013800000F0B4FD641EF3D13295059C089D002D3C
:101390000FD0329E227802A9300000F063FE0028B0
:1013A00002D4641C6D1EF5D13296002801D000F0E5
:1013B0009DFD302769460F700B9C002C0DDD329D82
:1013C00001236A4602A9280000F05DFE002801D032
:1013D00000F08CFD641EF3D13295059808994418ED
:1013E000099D002D0FD0329E227802A9300000F016
:1013F00039FE002802D4641C6D1EF5D132960028F7
:1014000001D000F073FD684607700C9C002C0DDDC8
:10141000329D01236A4602A9280000F034FE00280C
:1014200001D000F063FD641EF3D1329502A838218B
:10143000405C400700D45EE62020694608700198B1
:10144000002800DC57E6019C329D01236A4602A970
:10145000280000F018FE002801D000F047FD641EAF
:10146000F3D1329547E640487844FF30C01E0590DE
:1014700000F01BFD0E9D002D03D5200000F06AFE3C
:1014800009E02A000021200000F088FE002801D099
:10149000001B00E02800089000F007FD3498006869
:1014A0000268001D349908600020C04300211040EC
:1014B00002AA03C215A80590069A3C2302A803C8F5
:1014C000002904D1002802D10E9C002C15D05B1EEF
:1014D00005072D0F3035EEB23A2E08DAD554000943
:1014E0000C072043090904D1002802D105E0273563
:1014F000F4E7059CD518AC42E9D33C20C01A08900B
:10150000D11805910E99884208DA081A0A9002A8A3
:10151000018FAA4A0A40028700F0C7FC002901D4C3
:1015200000F0C3FC02A93822895C14220A40102A68
:1015300001D000F0BAFC0F99079A891A0A9A891A01
:10154000081A002801DC00F0B0FC00F0F9FB02A84A
:101550003B21415C002909D00024E4434B487844F6
:10156000FF302B30CEE600BF485F00003A21405CE0
:1015700062286AD0682819D06A2845D06C2806D01D
:1015800071284FD0742831D07A2821D06FE0349858
:1015900000680168001D349A106000297AD1002487
:1015A000E4433B487844FF301738ABE63498006892
:1015B0000168001D349A1060002905D10024E4431D
:1015C00033487844CA309DE60D98088000F06DFCE1
:1015D000349800680168001D349A1060002959D1C0
:1015E0000024E4432A487844A6308BE63498006807
:1015F0000168001D349A106000294BD10024E44397
:10160000234878448A307DE6349800680268001DDB
:1016100034990860002A13D10024E4431C4878441C
:101620006E306FE6349800680268001D34990860D7
:10163000002A05D10024E44315487844523061E67D
:101640000D98C11703C200F030FC3498006801689F
:10165000001D349A1060002905D10024E4430C4891
:1016600078442C304EE60D98087000F01EFC34983B
:1016700000680168001D349A106000290AD1002416
:10168000E4430348784408303CE600BFD85D0000DE
:10169000EC5D00000D98086000F007FC34980368CA
:1016A000DB1D072083433498036003CB349D2B60FC
:1016B00002AB03C32023C80F04D007982D2115AB1C
:1016C00019540DE002A8008F204204D007982B2166
:1016D00015AB195404E0C00704D5079815A90B549D
:1016E000401C079015A807994318059324AD02A83C
:1016F000C0C868460078202101436846817061298E
:1017000009D00E98002801D5062003E003D16729EF
:1017100001D114980E9002A803C808004C0064156B
:10172000641C0ED109030CD003200890613A1A2AD8
:1017300003D22349794488310FE022497944843126
:101740000BE0002C0ED100030CD103200890613A6D
:101750001A2A1DD31C4979446E310322180000F067
:101760004DFDA2E301AA02A803C800F07CFD02AA75
:1017700003C268468078612813D105983021017032
:10178000811C059169460978612905D1782104E019
:101790000E4979443631E0E7582141700798801CA2
:1017A000079002A803C893A20CCA02400B400FD1B5
:1017B000002A0DD10024002661E100BFEFFF0000E8
:1017C000F45C0000F45C0000F85C0000F05C0000D9
:1017D00068468078612800D099E00E98002801D5ED
:1017E000212000E0401C13901398401C2E903000E4
:1017F00039000022002300F04BFD02A830C802D2BD
:101800008020000645400198001F019024A90A701D
:1018100024A8461C2E98002832DD2E9F2000290087
:10182000002280235B0300F04CFD29D81C2200F02D
:1018300061FD04000D0000F095FD2E90FF1F002FAC
:1018400009DD00F0C9FD02000B002000290000F0B6
:1018500030FE04000D00F01D07212E9A002A0ADD3B
:10186000491E08D4401E13071B0F03701211F5E721
:10187000401E00220270491EFAD5C61D002FCDDC85
:1018800024A82F99711A24AA551C139A0C0091426E
:1018900000DD1400002C33D48C4205DA411C095DB4
:1018A000082901DB0F2100E00021220024AB9B1856
:1018B00001E0641E5B1E521E1E788E42F9D00F2975
:1018C00004D1411C895C491C401C8154002A04D568
:1018D00024AD641C0198001D0190611E10D46A188B
:1018E0006846007813783033DEB23A2E01DBC31835
:1018F000C6331370491E521E0029F3D5694608707D
:101900000E98002800D4B9E0601E0E90B6E07F006B
:101910007F08019868494843684900F057FE0190E4
:1019200007200199401A002805DD02003000390027
:1019300000F072FB0AE042420020614900F06CFBBB
:1019400002000B003000390000F09AFE6A469278DF
:10195000662A02D1019A0A3200E006220E9B9A18EA
:10196000142A00DD142224AB30241C705C1C02E01D
:1019700030A803C8139A002A40DD30AB03C313928A
:1019800030A803C800F000FD2E9006460834042558
:1019900030000A2100F01DFE0F0030000A2100F087
:1019A00018FE06003037601E077030000A2100F074
:1019B00010FE0F0030000A2100F00BFE0600A41EEE
:1019C000303727706D1EE3D1083413980838139010
:1019D0000028CDDD2E9800F0EFFC02000B0030A8AF
:1019E00003C800F066FD0022364B00F0AAFE30AAC4
:1019F00003C2C5E7FFFFFFFFFFFFFF7F2F98201AFD
:101A000024A94D1C04E0401E0199491E01916D1C42
:101A100029783029F7D069468978662902D1019959
:101A2000491C06E069468978652901D1149900E0CE
:101A300000210E9A5418A04200DA441E002C1DD436
:101A4000844204DA285D342801DD392100E03021A8
:101A50002200681E831801E0641E5B1E521E1E7861
:101A60008E42F9D0392902D1A95C491CA954002A17
:101A700004D50500641C0198401C0190019E13953B
:101A8000684600786946487000F01EFF406A00789A
:101A9000694608700E9D20B2002804DC149C05489D
:101AA0007844103013906846807866280CD1761CF4
:101AB00024E000BF105A000097750000A0860100C6
:101AC0000000F03F84D7974168468078672846D168
:101AD00030B20321C943884247DBA84245DA761C6D
:101AE00002A8008F1299C0B2084203D120B2A842C6
:101AF00000DC050030B22D1A00D5002537B2002FCA
:101B000000DDBAE00898411C08913021059A115473
:101B1000002D05DC02A8008F1299C0B2084206D041
:101B20000898411C089169460978059A1154784231
:101B3000854200DA6E4236B270420B90AD1920B287
:101B4000854200DA2C0024B20994220013990598EA
:101B5000089BC01800F052FB281B0C90DAE0684686
:101B60004078612818D170201BE020B2A84206DA24
:101B700002A9098F129AC9B2114200D105006D1E47
:101B800000D5002568464078672802D1652069465F
:101B900007E04520694604E068464078412801D1C5
:101BA000502048700898411C089113990978059AAB
:101BB00011541398411C002D05DC02A8008F129AC5
:101BC000C0B2104219D00898421C08926A46127896
:101BD000059B1A54002D10DD641E20B2854200DAE8
:101BE0002C0022B20598089BC01800F007FB24B215
:101BF000089800190890281B0B9005980899401820
:101C000069464978017031B2002903D42B21417013
:101C1000871C03E02D224270871C4E42002412AD27
:101C2000300008E00A2100F0D1FC30AA03C229707C
:101C30003098641C6D1C00B20028F3DC012C08DC19
:101C40006846407820210143652902D13020387050
:101C50007F1C002C09D1302038707F1C07E0641EE7
:101C600012A8005D303038707F1C002CF7DC05981E
:101C700008994018381A09904CE020B231B28842D5
:101C80001DDA22B213990598089BC01800F0B6FA25
:101C900024B2089800190890391B0B91002D05DC1F
:101CA00002A9098F129AC9B2114206D06946097871
:101CB000059A11540998401C09900C952AE032B2FB
:101CC00013990598089BC01800F098FA0898C01955
:101CD0000890A41B002D05DC02A9098F129AC9B235
:101CE000114205D0411C089169460978059A1154A2
:101CF00020B2854200DA2C0022B21398C11905984F
:101D0000089BC01800F07AFA24B2089800190890CD
:101D1000281B0B9002A83821405C14210140102997
:101D200000D0C2E00798089940180B99401809990B
:101D300040180C9940180F99884200DBB5E0081A4A
:101D40000A90B2E002AA3A20105C622808D0682803
:101D50000ED06A2814D06C281DD0712810D01AE03B
:101D6000349801680868091D349B1960C0B218E0F6
:101D7000349801680868091D349B196080B210E02E
:101D800034980368DB1D072083433498036003CB3A
:101D9000349C236006E0349801680868091D349B70
:101DA0001960002102AB03C3108F1299C0B2084220
:101DB0005BD002A803C8002901D1002855D068468D
:101DC00000782021014378294FD1079815A93022A6
:101DD0000A54401C421C07926A4612780A5444E096
:101DE00002AA3A20105C622808D068280ED06A281F
:101DF00014D06C281DD0712810D01AE034980168D6
:101E00000868091D349B196040B218E034980168D5
:101E10000868091D349B196000B210E0349803680B
:101E2000DB1D072083433498036003CB349D2B6074
:101E300006E0349801680868091D349B1960C117D1
:101E400002AB03C3002902DA07982D2109E0108FA5
:101E5000204202D007982B2103E0C00705D5079840
:101E6000202115AA1154401C079015A80799401865
:101E700005906846017802A800F03CF815E0149837
:101E80000790349800680168001D349A106015A806
:101E900001700AE0252015A908701498079068467B
:101EA0000078002801D04A7007940F980799401ACB
:101EB0000A99401A0899401A0B99401A0999401A30
:101EC0000C99401A019002A83821405C400701D5C6
:101ED000FFF733FA2020694608700198002801DCDA
:101EE000FFF72BFA019C329DFFF71AFA0020C0433E
:101EF00035B0F0BDF2B586B0040025696F2901D177
:101F0000082707E0084620210143782901D00A2745
:101F100000E010273C2603CC083C04AA03C26A4612
:101F2000127E642A03D06A46127E692A09D10029EA
:101F300007DA04A803C800220023121A8B4104A860
:101F40000CC004A803C800290DD100280BD1206BB8
:101F5000002808D1082F3DD13820205C000739D552
:101F60003B26302035E00294009504A830C8761E48
:101F70000196200029003A00FB1700F0ABFC30323C
:101F8000D0B23A280DDA00988255200029003A0094
:101F9000FB1700F09FFC04000D0007D1002C05D1B9
:101FA0000AE06846007E8218AF32ECE70298C0680B
:101FB000009989198842DAD3029C009D082F09D123
:101FC0003820205C000705D5A85D302802D0761E99
:101FD0003020A8553C20801BA061A919E160216B2D
:101FE000884206DA081A2062208F1C4901402187A6
:101FF00010E000290ED53821615C14220A40102A15
:1020000008D1616B6269891A226A891A081A002844
:1020100000DD206207B0F0BDF8B50026104F0400C7
:102020000D00009214E0C00707D532003B002000ED
:10203000290000F086FB04000D000098401000907D
:102040003000390032003B0000F07BFB06000F003F
:1020500000980028E7D120002900F4BDEFFF000020
:102060000000244010B503000C001100A068984740
:10207000A060002804D0E06A401CE062002010BD8F
:102080000020C04310BDF8B50024002B11D007007C
:102090000E0014001D002178B068B847B060002819
:1020A00009D0F06A401CF0620020641C6D1EF2D161
:1020B00004002000F2BD0020C043F9E7C9B2027855
:1020C0008A4203D0401C002AF9D10020704730B565
:1020D00001684118446862088A188368E40704D5D7
:1020E0004C461B1901E0641C09D1914203D00C78C5
:1020F00064B2491C01E00C3030BD0D78491C1D70E4
:102100005B1C002CEFD4641EF7D5EEE780B50028E9
:1021100001D100BF07A006490B68002B03D0222283
:102120000021984701E000F013FC222002BD0000CE
:10213000940E0020636F6E73747261696E74206810
:10214000616E646C65723A20626164206D657373C0
:1021500061676500431C810705D00178401C094276
:1021600017D08107F9D130B40B4CE50104C8111B1D
:1021700091432942FAD030BCDB1CFF210A4208D02F
:10218000120A5B1E0A4204D0120A5B1E0A4200D0E9
:102190005B1EC01A7047000001010101C9B2521E46
:1021A00005D30378401C8B42F9D1401E70470020B4
:1021B00070470268531C03601170704770B4103A86
:1021C00003D378C9103A78C0FBD2530701D318C99A
:1021D00018C001D508C908C0D20704D30B880380F2
:1021E000891C801C002A01D50B78037070BC7047D5
:1021F000521E22D30B78491C0370401C8B07F7D169
:102200008307DBD0DB4219D0401E121F08D308C958
:1022100043701B0A43801B0C0371001D121FF6D272
:10222000D20707D30B88437001D08A78C2701B0A8B
:102230008370704701D00B7843707047121F06D32C
:1022400008C903801B0C4380001D121FF8D2D2075F
:1022500005D30B88038005D08B788370704701D03D
:102260000B780370704710B5144600F002F8226036
:1022700010BD4A0053155B1C08D0520D06D0032335
:102280001B02FE3AD21A1305C91A70470022704782
:1022900030B4012464054D00EC420BD85D00EC42E3
:1022A00008D80C001C4364000443144304D2994230
:1022B00000D1904230BC7047FCD08B42FAD18242B0
:1022C000F8E730B4012464054D00EC420BD85D0002
:1022D000EC4208D80C001C4364000443144304D2AD
:1022E0008B4200D1824230BC7047FCD09942FAD177
:1022F0009042F8E7124217D40023DB435B0D9C4663
:102300004B005B0D06D0634504D09B18634502D299
:102310001205891870476246090D1143090500200E
:1023200000B500BF00BF00BD52424B005B0DF1D0B5
:102330005B1C5B05EED25B0D934102D91205891A35
:1023400070470BD10B031B13C90FC907821C002058
:1023500043411343E4D912051143E1E7C90FC9070B
:102360000020DDE7F4464A1805D200F00FF801D549
:1023700080174008604700F009F80121C90788422A
:1023800000D90800404260474A1812D2400DC902E5
:1023900008430121C9070843520D40210901521A7F
:1023A000521C06D452421F3201D4D0407047C0178D
:1023B0007047002070472E00010042221201D21EF9
:1023C000004207D002D4521E0018FCD5C10A4005B5
:1023D00012058918704700000100EED54042F4460E
:1023E000FFF7EBFF0122D20711436047F0B401254C
:1023F000ED070F005F404FD48B4200D1824205D9D8
:102400008446100062468C4619006346DF184C185B
:10241000640D7F0D3AD0661C760537D0E61B352E4D
:1024200034DCDB022B43DB0A0C0DC9022943C91241
:10243000202E0DDB1700203E06D01F00F741F34091
:102440005F400026012A7741C01871410DD217E084
:102450001700F741F2405740F3415A40B340F34070
:102460005A400026801859410AD3A21C52050FD0A9
:10247000C207012F724117004008CB0718434908D3
:10248000641C24054208AF4170416141F0BC7047B3
:10249000641C21050020F9E76B4010E06B40ABE7BE
:1024A000F742F3D1E943F1E72442EFD100200021C4
:1024B000ECE7F0B40125ED070F005F40EED40C000F
:1024C000871A9C4105D2C01BA141D21963416940C2
:1024D0006B40AE0ADF184C18F442E1D2640D7F0D58
:1024E000E2D0E61B362ED1DCDB022B43DB0AA4460E
:1024F0000C0DC9022943C90A012E28DC04D1D607D4
:102500005208DF073A435B08EF0A7642904199414F
:1025100014D039423BD1B61940414941761C394269
:1025200004D1761C001849413942FAD0B9436746B4
:10253000B74208D9A41B24052143A7E70042EAD1EA
:102540003642E8D1A2E7E40AE10700209EE7202E08
:102550000BDD203E1F00F340F7415F40012A0022BF
:1025600057417E42984191410BE01700F741F240FC
:102570005740F3415A40B340F3405A407E429041A5
:1025800099410A0303D2641EB6194041494100270C
:10259000641E24054208AE4178416141F0BC704799
:1025A000F446002804D4494200F013F84042604742
:1025B0004042002905D45FD000F00BF84042494268
:1025C0006047494200F005F84942604703460B4323
:1025D000E6D40022030A8B420BD203098B4219D2A4
:1025E00043088B422ED2411A00D201465241104676
:1025F0007047FF2209023FD012068B4205D3121208
:1026000009028B4201D31212090203098B4219D32A
:1026100000E0090AC3098B4201D3CB01C01A524121
:1026200083098B4201D38B01C01A524143098B426B
:1026300001D34B01C01A524103098B4201D30B0154
:10264000C01A5241C3088B4201D3CB00C01A524179
:1026500083088B4201D38B00C01A524143088B423E
:1026600001D34B00C01A5241884200D3401A524154
:10267000CFD201461046704708B500F06FF908BD8B
:10268000F0B40E005E400125ED072E40B446AE0AC0
:10269000DF184C18F4423BD2F74241D2640D43D0CC
:1026A0007F0D38D0E41BC902DB0229432B43CF0A3C
:1026B000DB0A0600B61A9F4104D2641EB6197F4198
:1026C000B6185F416812800D24180018844222DC7D
:1026D000E80C0021B6197F41B61A9F4102D2B61804
:1026E0005F413F1C40414941F4D3241C21DD2405B6
:1026F000B6197F41B61A9F4105D33743C607374302
:102700000026012F7041614166463143F0BC70479D
:10271000FCD1F74205D20020C14349054908F3E73F
:1027200004D00020C143F1E77F0DFAD000206146BC
:10273000ECE72442FAD1401C61410F03F6D300209C
:10274000E2E7F0B50E005E400125ED072E40B446ED
:10275000AE0ADF184C18F44208D2F7420ED2640DCC
:1027600001D07F0D12D100206146F0BD05D1F742A6
:1027700001D87F0D05D10020C143F0BDFBD1640D10
:10278000F9D00020C143490549088FE0E419C90286
:10279000DB0229432B43DB0A460DC00231438E4640
:1027A00030B487B295B27D432E0CADB2140C7C438D
:1027B000A419260C240425439CB27C43A419190CAB
:1027C0007943270CC919A4B20F043C43090C000C2F
:1027D00097B247432E0CBE193543ADB2170C474391
:1027E000360CBF19A6B2BF193E043543240C3E0C6B
:1027F00036199FB24743BF19BCB23E0C89191F0C52
:1028000047437F183E043443390C704680B297B278
:1028100047432E0CBE193543ADB2170C4743360C57
:10282000BF19A6B2BF193E043543240C3E0C36191D
:102830009FB24743BF19BCB23E0C89191F0C4743D6
:102840007F183E043443390C77463F0C90B27843EE
:102850002E0C80190604ADB22E43050CA0B22D1823
:10286000120C7A435019020C80B2240CA4189AB2AC
:102870007A43121914042043120C89181B0C7B4351
:10288000C91830BCEF0A394203D1B6194041494159
:10289000641E6F12BF0DE41B0BDBFF19BC4211DA83
:1028A000240500274208AE41784161416646314324
:1028B000F0BD641C05D1401C6141CF0201D3490821
:1028C000F4E750E75DE7FEE70148704700000000CD
:1028D0004803002012422DD0994231D970B500250D
:1028E0001B4209D00C00002112E01100FFF771FE1D
:1028F0000A000021002370BD0942F6D00024012601
:1029000049186441944200D3A41A7641F8D33100A7
:10291000012601E0764109D2001864416D41A41AF4
:102920009D41F7D2A4185D41B619F5D330002200BD
:102930002B0070BD1B42CFD108B500F011F808BDC7
:1029400001D19042CAD202000B0000210020704742
:1029500080B5012000F006F801BDFEE77047FEE7F4
:102960007047FEE780B500BF00BF024A1100182083
:10297000ABBEFBE72600020000B587B08020C00296
:1029800072490A6802430A6009680840009000988A
:10299000102001900120029003900320049001A9CF
:1029A0006B4800F029FD07B000BDF0B587B080206E
:1029B000C00266490A6802430A600968084000903C
:1029C00000981020019001240294039403200490A5
:1029D0005F4E01A9300000F00FFD012240213000C0
:1029E00000F048FE684604709025ED05E4030022DF
:1029F0002100280000F03EFE00221021300000F0EF
:102A000039FE544F3B0001226946E04800F0D3FEF6
:102A100001222100280000F02DFE782001F044FA68
:102A200011206946087000222100280000F022FED3
:102A300000221021300000F01DFE3B0001226946FB
:102A4000D24800F0B8FE01222100280000F012FE5A
:102A5000782001F029FA362069460870002221000A
:102A6000280000F007FE00221021300000F002FED6
:102A70003B0001226946C54800F09DFE012221006D
:102A8000280000F0F7FDC8206946087000222100E8
:102A9000280000F0EFFD01221021300000F0EAFDD7
:102AA0003B0001226946B94800F085FE0122210061
:102AB000280000F0DFFD3A2069460870002221005E
:102AC000280000F0D7FD00221021300000F0D2FDD8
:102AD0003B0001226946AD4800F06DFE0122210055
:102AE000280000F0C7FD052069460870002221007B
:102AF000280000F0BFFD01221021300000F0BAFDD7
:102B00003B0001226946A14800F055FE0122210048
:102B1000280000F0AFFD292069460870002221003E
:102B2000280000F0A7FD00221021300000F0A2FDD7
:102B30003B0001226946954800F03DFE012221003C
:102B4000280000F097FD07B0F0BD0000141002400F
:102B500000040048FF0F0000FFB581B02A2069463D
:102B600008709025ED058024240200222100280011
:102B700000F080FD00221021854800F07BFD834F8E
:102B8000844E330001226946380000F014FE012211
:102B90002100280000F06EFD002069460870002228
:102BA0002100280000F066FD01221021784800F085
:102BB00061FD330001226946380000F0FCFD01226E
:102BC0002100280000F056FD68468088801C694678
:102BD000087000222100280000F04CFD0122102185
:102BE0006B4800F047FD330001226946380000F0D1
:102BF000E2FD01222100280000F03CFD0020694692
:102C0000087000222100280000F034FD012210216C
:102C10005F4800F02FFD330001226946380000F0C4
:102C2000CAFD01222100280000F024FD68468089A9
:102C3000801C6946087000222100280000F01AFD5F
:102C400001221021524800F015FD3300012269468F
:102C5000380000F0B0FD01222100280000F00AFD3C
:102C60002B206946087000222100280000F002FD98
:102C700000221021464800F0FDFC33000122694685
:102C8000380000F098FD01222100280000F0F2FC3D
:102C900000206946087000222100280000F0EAFCAC
:102CA000012210213A4800F0E5FC33000122694678
:102CB000380000F080FD01222100280000F0DAFC3D
:102CC00068460089C01C694608700022210028005F
:102CD00000F0D0FC012210212D4800F0CBFC330085
:102CE00001226946380000F066FD0122210028001B
:102CF00000F0C0FC00206946087000222100280076
:102D000000F0B8FC01221021214800F0B3FC330090
:102D100001226946380000F04EFD01222100280002
:102D200000F0A8FC6846008AC01C694608700022B2
:102D30002100280000F09EFC01221021144800F020
:102D400099FC330001226946380000F034FD01226D
:102D50002100280000F08EFC2C206946087000221B
:102D60002100280000F086FC00221021084800F015
:102D700081FC330001226946380000F01CFD01226D
:102D80002100280000F076FC05B0F0BD440D0020C5
:102D900000040048FF0F0000F1B582B02A20694608
:102DA00008709025ED0580242402002221002800CF
:102DB00000F060FC00221021A14800F05BFCA14B58
:102DC00001226946A04800F0F6FC012221002800FB
:102DD00000F050FC002669460E70002221002800F9
:102DE00000F048FC01221021954800F043FC954B6F
:102DF00001226946944800F0DEFC012221002800EF
:102E000000F038FC022069460870002221002800EA
:102E100000F030FC01221021894800F02BFC894B86
:102E200001226946884800F0C6FC012221002800E2
:102E300000F020FC69460E7000222100280000F0FE
:102E400019FC012210217E4800F014FC7D4B012268
:102E500069467D4800F0AFFC01222100280000F007
:102E600009FC81206946087000222100280000F03A
:102E700001FC01221021724800F0FCFB714B012281
:102E80006946714800F097FC01222100280000F0FB
:102E9000F1FB2B206946087000222100280000F079
:102EA000E9FB00221021664800F0E4FB654B01229B
:102EB0006946654800F07FFC01222100280000F0EF
:102EC000D9FB69460E7000222100280000F0D2FBD9
:102ED000012210215A4800F0CDFB5A4B01226946CD
:102EE000594800F068FC01222100280000F0C2FBD4
:102EF00003206946087000222100280000F0BAFB78
:102F0000012210214E4800F0B5FB4E4B01226946CC
:102F10004D4800F050FC01222100280000F0AAFBDF
:102F20006846067000222100280000F0A3FB012261
:102F30001021434800F09EFB424B01226946424863
:102F400000F039FC01222100280000F093FB8220D0
:102F50006946087000222100280000F08BFB012246
:102F60001021374800F086FB364B0122694636486F
:102F700000F021FC01222100280000F07BFB2C2620
:102F80006846067000222100280000F073FB002232
:102F900010212B4800F06EFB2A4B012269462A487B
:102FA00000F009FC01222100280000F063FB6846C4
:102FB000067000222100280000F05CFB0022102196
:102FC0001F4800F057FB1F4B012269461E4800F0C6
:102FD000F2FB01222100280000F04CFB8020019030
:102FE00068460589174E184F8024280A694648709C
:102FF0000D700022802109029020C00500F03AFBEC
:10300000012210210E4800F035FB3300012200A9F7
:10301000491C380000F0CFFB33000122694638001C
:1030200000F0C9FB0122D1039020C00500F022FB73
:10303000641EDAD10198401E0190D5D103B0F0BDD5
:1030400000040048FF0F0000440D0020FCB593B0C1
:103050001A9A0023039314AC2488240A6D466C83C7
:1030600013AC2488240A2C836C4621841A9207927C
:1030700004009025ED05DC4EDC4F45E12A20694631
:1030800008728024240200222100280000F0F2FAB5
:1030900000221021D64800F0EDFA3300012202A9E7
:1030A000380000F088FB01222100280000F0E2FA3D
:1030B00000206946087200222100280000F0DAFA98
:1030C00001221021CA4800F0D5FA3300012202A9DA
:1030D000380000F070FB01222100280000F0CAFA3D
:1030E00068460088801C694608720022210028007A
:1030F00000F0C0FA01221021BD4800F0BBFA3300F5
:10310000012202A9380000F056FB0122210028000C
:1031100000F0B0FA00206946087200222100280061
:1031200000F0A8FA01221021B14800F0A3FA330000
:10313000012202A9380000F03EFB012221002800F4
:1031400000F098FA68460088C01C694608720022A0
:103150002100280000F08EFA01221021A44800F07E
:1031600089FA3300012202A9380000F024FB012271
:103170002100280000F07EFA2B2069460872002208
:103180002100280000F076FA00221021984800F073
:1031900071FA3300012202A9380000F00CFB012271
:1031A0002100280000F066FA00206946087200221B
:1031B0002100280000F05EFA012210218C4800F066
:1031C00059FA3300012202A9380000F0F4FA012272
:1031D0002100280000F04EFA68464088C01C69466D
:1031E000087200222100280000F044FA0122102178
:1031F0007F4800F03FFA3300012202A9380000F0B6
:10320000DAFA01222100280000F034FA0020694691
:10321000087200222100280000F02CFA012210215F
:10322000734800F027FA3300012202A9380000F0A9
:10323000C2FA01222100280000F01CFA68464088EA
:10324000001D6946087200222100280000F012FAD1
:1032500001221021664800F00DFA3300012202A974
:10326000380000F0A8FA01222100280000F002FA3C
:103270002C206946087200222100280000F0FAF98B
:10328000002210215A4800F0F5F93300012202A96A
:10329000380000F090FA01222100280000F0EAF93D
:1032A0006846408B6946487214A80088087200225C
:1032B0002100280000F0DEF9012210214C4800F026
:1032C000D9F93300012202A9491C380000F073FA31
:1032D0003300012202A9380000F06DFA012221001A
:1032E000280072E068464088401C0599491C0591F9
:1032F0000499491E049122D1099C0398401C039013
:1033000008340798401C07901A98FEF723FF03998A
:10331000814212D207980078A1280EDA102235498E
:10332000000109180AA8FEF769FF0AA96846008C7F
:10333000102209940591049201E015B0F0BD00211E
:1033400001910999059A12786B469A726A46118022
:10335000694648806846807A8021019A93105B0F05
:103360009B18DB10DB00D21AD140084200D185E661
:10337000684643885B1C9BB20288521C92B241880B
:103380000088FFF7E9FB6846008B6946487213A87E
:1033900000880872002280210902284600F06AF99C
:1033A00001221021124800F065F93346012202A9DA
:1033B000491C384600F0FFF93346012202A938467D
:1033C00000F0F9F90122D103284600F053F90198E1
:1033D000401C019068460088401C6946088001989E
:1033E0000828B7DB7EE70000FF0F0000440D002037
:1033F00000040048BC000008F0B484B000220F2391
:1034000002930B68002B00D1BFE0012494400B68AD
:10341000234000D1B4E055006E4635700325367860
:10342000B540EE4301964D68AE07B60F012E03D0AE
:10343000AD07AD0F022D11D18668019D3540CE68D4
:103440006F463F78BE402E43866046680125A643FE
:103450004C682409254095403543456003244D6858
:103460002540032D26D0C668019D35408E686F46E5
:103470003F78BE402E43C6604D682540022D19D1CD
:10348000D508AD0045192E6A039697001C263E40CC
:103490006F467E70039EB446029F6E467678B740B4
:1034A0006646BE43B4460F696E467678B7406646B8
:1034B00037432F620668019D35404E6826406F46AF
:1034C0003F78BE402E4306604D6826042E4057D0FC
:1034D00001256B4E36682E43694F3E603E682E4094
:1034E0000096009E674E9708BF00F6190196366851
:1034F00003960C2697003E406F463E70039EB446EE
:10350000029F6E463678B7406646BE439027FF0559
:10351000B84201D100240DE05B4FB84201D1012433
:1035200008E05A4DA84201D1022403E0584DA842B8
:1035300000D005246D462D78AC403443019D2C60AD
:10354000544C2668DC4326404D68ED0300D51E43ED
:10355000504D2E606E6826404F68BF0300D51E4355
:103560006E60AE6826404F68FF0200D51E43AE6015
:10357000EE6834404E68B60201D523431C00EC606F
:10358000521C0B68D34000D03FE704B0F0BC70473A
:10359000002900D17047F0B483B0029100210122CC
:1035A0008A400192029B1A4056D0364B8C08A400E8
:1035B0001B191E688C000C2525406F463D700F2599
:1035C0003F78BD402E409027FF05B84201D100272B
:1035D0000FE02D4FB84201D101270AE02B4FB8422E
:1035E00001D1022705E02A4FB84201D1032700E0AC
:1035F0000527B4466E463678B740BC4511D1D64350
:10360000244A12683240234F3A607A6832407A6026
:10361000BA683240BA60FA681640FE601A68AA4377
:103620001A6003234A009340DA430368134003609F
:10363000CB089B00C3181D6A0F261C272740BE40DD
:10364000B5431D62C3681340C3604368019CA34334
:10365000436083681A408260491C029ACA409ED126
:1036600003B0F0BC704700690840401E8041C04371
:10367000C00F7047002A01D0816170478162704796
:1036800018100240080001400004004800080048EB
:10369000000C004800040140F0B581B0040001D1E5
:1036A00001206FE00025606A002806D16068822151
:1036B0004900884203D0E56101E025616561A562AA
:1036C00026005C367078002803D13570200000F0A9
:1036D00025FC0220707021680A6840239A430A6022
:1036E000E268E023DB009A4205D90021F0231B01A8
:1036F0009A4203D103E0C1029A4200D0A56201229E
:10370000636882277F001F40BC46A76884231B0292
:103710003B4067463B432769384018436369134081
:103720000343A069570238401843277F38233B40A2
:1037300003432020205C802738401843A36A5703A6
:103740003B40034320680360A069030C042003404E
:103750002420205C1027384018433423E35C0827DA
:103760003B400343E068F0273F0107401F433943D4
:10377000206841602068C169034B0B40C3617560DC
:103780007270002001B0F0BDFFF7FFFF10B50028F8
:1037900001D1012010BD04005C3402216170016878
:1037A0000A6840239A430A6000F0E5FB002060604D
:1037B0006070207010BDF8B584B007000C000020C8
:1037C0006946087038004430007E012801D102208B
:1037D00088E11500012039004431087600F000FC32
:1037E00029003A004432527E012A01D002206FE1C2
:1037F000002C00D16BE12A0000D168E103223B00DC
:1038000044335A7600223B004433DA61BC63BD87FF
:10381000FD873A6444243A533C00443462803B00C0
:103820004433DA603B0044339A60BA6880231B0259
:103830009A4209D13A6813684024A34313603A6856
:10384000136824021C4314603A68402314681C4027
:1038500002D11468234313607A68049DFB68A24C6C
:10386000A3422FD3002A01D0012909D1B96B0988BD
:103870003A68D160B96B891CB963F98F491EF98721
:103880003C00070008E0A16B0988C160A06B801CA8
:10389000A063E08F401EE087E08F002840D02068C2
:1038A00081688907EFD400F09BFBC01BA84206D3B8
:1038B0000020C0438542EFD02700032008E1002DFF
:1038C000EAD1F9E7002A01D0012909D1B96B0978B9
:1038D0003A681173B96B491CB963F98F491EF987AE
:1038E0003C00070008E0A16B09780173A06B401C45
:1038F000A063E08F401EE087E08F002810D0206892
:1039000081688907EFD400F06BFBC01BA84204D389
:103910000020C0438542CFD1EEE7002DECD1CBE7AC
:1039200000206946487000F05BFB281AC61900F0B9
:1039300057FB6E49096823225143090D71430191D8
:10394000029006E00198002800D100260198401E50
:1039500001900020C04321688968C02252010A40BA
:103960000BD08542F5D000F03BFB0299401AB042E3
:1039700001D2002EE6D1270061E000F031FB281AC9
:10398000C61900F02DFB594909684901090D714319
:10399000019102940495040006E00198002800D1EA
:1039A00000260198401E01900020C043029909683A
:1039B000896809060BD504998142F5D000F010FB07
:1039C000001BB04201D2002EE7D1029F37E0002059
:1039D00069464870049C00F003FB201AC61900F0E9
:1039E000FFFA029909680C31404A126823235A43AE
:1039F000120D72430192C024E4000025ED43029FA2
:103A00000390029106E00198002800D10026019859
:103A1000401E019038688068204049D002980078A4
:103A200069464870684640780498A842F2D000F091
:103A3000D7FA0399401AB04201D2002EE3D1386878
:103A40004168E022914341607868822149008842C0
:103A50000CD1B86880210902884202D04909884205
:103A600004D13868016840229143016080208001C0
:103A7000B96A814208D139680A681D4B13400B604E
:103A800039680A68104308600120390044314876DB
:103A9000002039004431087638004430C0692021C4
:103AA000014338004430C161202039004431C861ED
:103AB000B868002806D101903868C1680191806813
:103AC0000190019838004430C069002802D00120DC
:103AD00069460870380044300121417600210176A2
:103AE0006846007805B0F0BD0107000044030020DF
:103AF000FFDFFFFFF2B584B0040017000120029041
:103B000000206946087020004430007E012801D161
:103B10000220BFE11D00260044360120307600F06F
:103B20005FFA0190717E280001290BD06268822320
:103B30005B009A4204D1A268002A01D1042901D075
:103B4000022089E00499002903D0002F01D02A0027
:103B500001D1012080E022004432527E042A03D0A9
:103B60000522230044335A76002223004433DA61CD
:103B700027642200443255804422A552A163E58780
:103B8000A587002122004432916022004432D16096
:103B90002268C149E3688B42536802D3BF4D1D4080
:103BA00002E080256D011D435560226840231568A1
:103BB0001D4002D115682B43136062680A9DE368BB
:103BC0008B424CD3002A01D0012809D1A06B008878
:103BD0002168C860A06B801CA063E08F401EE08756
:103BE000029E019FE08F002805D1200044304088CC
:103BF000002800D17FE02068816889070ED5E18F19
:103C000000290BD0002E09D0A16B0988C160A06BE0
:103C1000801CA063E08F401EE08700262068012101
:103C200082680A400ED0220044325388002B09D00B
:103C3000C068236C1880206C801C20645088401E53
:103C40005080012600F0CCF9C01BA842CAD3002046
:103C5000C0438542C6D003206946087012E1002A9D
:103C600001D0012809D1A06B007821680873A06BEE
:103C7000401CA063E08F401EE087029E019FE08F02
:103C8000002804D1200044304088002833D0206828
:103C9000816889070ED5E18F00290BD0002E09D04D
:103CA000A16B09780173A06B401CA063E08F401EDC
:103CB000E08700262068012182680A400ED0220099
:103CC00044325388002B09D0007B236C1870206C81
:103CD000401C20645088401E5080012600F080F96E
:103CE000C01BA84204D30020C0438542B3D1C6E71D
:103CF000002DC4D1AFE700206946487000F070F98C
:103D0000281AC61900F06CF9654909682322514345
:103D1000090D71430191029006E00198002800D13D
:103D200000260198401E019020688068C02149014A
:103D300001400CD00020C0438542F5D000F050F97E
:103D40000299401AB04265D2002EE6D162E000F03E
:103D500047F9281AC61900F043F951490968490181
:103D6000090D7143019102940A95040006E001983F
:103D7000002800D100260198401E01900020C04379
:103D800002990968896809060BD50A998142F5D01C
:103D900000F026F9001BB04201D2002EE7D1029CB0
:103DA00038E00020694648700A9C00F019F9201A92
:103DB000C61900F015F9029909680C31384A1268E1
:103DC00023235A43120D72430192C024E4000025BC
:103DD000ED43029F0390029106E00198002800D174
:103DE00000260198401E019038688068204048D025
:103DF0000298007869464870684640780A98A84258
:103E0000F2D000F0EDF80399401AB04201D2002E32
:103E1000E3D13C0020684168E02291434160606842
:103E20008221490088420CD1A06880210902884281
:103E300002D04909884204D1206801684022914398
:103E4000016080208001A16A814208D121680A684E
:103E5000144B13400B6021680A681043086020006F
:103E600044300121417600210176C16920220A43B4
:103E7000C261012069460870202021004431C861D8
:103E800000E03C0020004430012141760021017611
:103E90006846007805B0F0BD01070000FFEFFFFFA6
:103EA00044030020FFDFFFFF30B581B0050000F0C4
:103EB00097F804000020C043854202D004480078EF
:103EC0002D1800F08DF8001BA842FAD301B030BDC8
:103ED0001C03002000B581B03A483B4901608221B3
:103EE0004900416000218160E022D200C26001618E
:103EF00041618022920082612022C261016241629E
:103F000081620722C262016308214163FFF7C4FB9B
:103F1000002801D000F014FA01B000BD10B586B041
:103F200004001422002101A800F062FA206826494A
:103F300088421ED12548810C42680A43426042688B
:103F40001140009100998021C90202680A43026071
:103F500000680140009100983820019002200290F2
:103F60000020039003210491059001A91848FFF750
:103F700043FA06B010BD00681349884200D070476C
:103F800000B581B013480168134A0A400260382125
:103F90000F48FFF7FDFA01B000BD01B582B0002067
:103FA000694608710D480090012301AA02A905483D
:103FB000FFF7A0FD002801D0012001E0684600794C
:103FC00003B000BD440D0020003001401410024039
:103FD0000004004818100240FFEFFFFFFFFF000041
:103FE00001484068704700BF1C030020F0B597B03F
:103FF00000206946087100F005FA30210BA800F096
:1040000025FA02A800210022002300241EC00EC0B1
:1040100006C011200B9001250C95109510241194C9
:1040200002261396200314900001159016910BA8F8
:1040300000F026FA002801D072B6FEE707200290B1
:104040000396002004900590012102A800F016FCC0
:10405000002801D072B6FEE70695089006A800F089
:10406000F3FC002801D072B6FEE700F07BFD00F003
:10407000D9FD00F0EFFD00F06BFEFFF72BFFFEF720
:1040800094FC984F3800FEF787FEFA204000FFF7B7
:104090000BFF3800FEF780FEF8263602FC25ED0007
:1040A00091A000902B00320000210020FEF7CEFFEF
:1040B00092A000902B00320010210020FEF7C6FFD6
:1040C00093A000903B00002220210020FEF7BEFFBD
:1040D000A0A000903B00002220214020FEF7B6FF68
:1040E0009DA000903B00002230210020FEF7AEFF93
:1040F0009AA000903B00002240210020FEF7A6FF7E
:104100009748FFF743FBFFF7E5FE964801680A680A
:1041100014430C608022944900F07CFF01A94220E6
:1041200001F0FFFB7CA468460079122802D000BF92
:10413000A6A000E07EA001F0A5FC68460179200061
:1041400001F0A0FC012001F0B1FC022001F0AEFC66
:10415000032001F0ABFC01F0D3FC844D68610068E2
:10416000804700BF9EA001F08DFC68698068804791
:104170007F4E2DE00021002200230EC006C0FEF776
:10418000FBFB7CA4AA68210002A801F0D5FC02A8D0
:1041900000903B00002230214020FEF757FF02A88C
:1041A000FDF7D8FF010002A800F050F96A6821006D
:1041B00002A801F0C1FC02A800903B0000224021AF
:1041C0004020FEF743FF6648FFF7E0FAFFF782FE64
:1041D000307801280AD17188301D6A6912699047C8
:1041E0007188301D00F030F9002030706869406936
:1041F0008047022819D052D3042805D04BD3052874
:104200004DD100BF6DA048E0022001F05DFC287890
:10421000012803D16868401C686002E0E868401C1F
:10422000E86068698068804739E0A91C2800183078
:104230006A69D26890476C88287801280AD12800DA
:104240001830FDF787FF230002002900183100BF56
:104250004EA008E028001830FDF77CFF2300020084
:10426000290018314FA001F00DFC6888002816D0F5
:10427000012001F029FC2878012803D1A868401CFE
:10428000A86002E02869401C28616988280018306D
:1042900000F0DCF803E000BF38A001F0F3FB287861
:1042A000012802A800D165E70021002200230EC0EA
:1042B00006C0FEF761FB2A692EA102A801F03CFCB2
:1042C00002A800903B00002230214020FEF7BEFEF5
:1042D00002A8FDF73FFF010002A800F0B7F8EA6866
:1042E00024A165E7E0FF00002020204C6F526120F0
:1042F000546F706F6C6F6779202020002020202081
:104300002020536C61766520202020202020000092
:10431000535349443A0000004C6F52612052656784
:1043200056657273696F6E203D202564210D0A0069
:104330004C6F52612072656164204F4B210D0A0061
:1043400072B6FEE740210C4A13680B40FCD0C1B2A4
:10435000918170473330000052583A0054580000A1
:10436000440D00204C0C0020CC0B002084020020C7
:10437000C8030020256400001C38014052465F52EB
:10438000585F54494D454F55540A00006D61737490
:1043900065722052785F5F25732C5F5F2C25642C3B
:1043A00025640A00736C6176652052785F5F25731F
:1043B0002C5F5F2C25642C25640A000052465F5454
:1043C000585F54494D454F55540A00004C6F526197
:1043D0002072656164204572726F72210D0A0000BF
:1043E00073797374656D20696E6974206F6B210039
:1043F00010B50400080011000200200000F014F8BD
:10440000200010BD00B581B00648016810220A43A3
:104410000260032001F0B0FB01F0D2FB002001B0EC
:1044200000BD0000002002401206130A1A43130CBC
:104430001A4300BF094205D0830709D00270401C0F
:10444000491EF9D1704700000022F3E70022FFE780
:104450001300103906D330B41400150010393CC0D5
:10446000FCD230BC490700D30CC000D504C0890081
:1044700002D30280801C002900D502707047FEE73D
:10448000F1B582B0002800D1EEE1AD4C0078C00754
:1044900016D50C2061680140042909D061680840E4
:1044A000082849D18020400261680140814243D1FF
:1044B0002068800304D502984068002800D1D3E129
:1044C0000298007880071AD50C206168014006D058
:1044D0006168084008286DD16068C0036AD420680C
:1044E000800704D50298C068012800D0BCE120688C
:1044F000F821884302990969C900014321600298A3
:104500000078000700D495E00298C0690028606A2E
:1045100000D17FE0012101436162FFF761FD0600E8
:104520000225606A284000D084E0FFF759FD801B17
:104530000228F6D903209AE102984068012804D1A4
:10454000206880214902014315E0002801D120683C
:104550000BE00528206808D18021C90201432160B1
:10456000206880214902014305E07649014021602D
:1045700020687549014021608025AD02029840689D
:1045800000280BD0FFF72CFD06002068284097D1AB
:10459000FFF726FD801B6528F7D3CBE7FFF720FD4B
:1045A0000600206828408BD0FFF71AFD801B652885
:1045B000F7D3BFE70298C0680028206819D001210E
:1045C00001432160FFF70CFD0225029E07002068D1
:1045D000284005D1FFF704FDC01B0228F7D9A9E741
:1045E0002068F82188433169C9000143216002969F
:1045F00085E7012188432060FFF7F2FC06000225D1
:104600002068284000D17AE7FFF7EAFC801B0228E7
:10461000F6D98FE7012188436062FFF7E1FC0600CD
:104620000225606A284005D0FFF7DAFC801B0228CB
:10463000F7D97FE7042502980068284063D000205E
:104640000090A806E169014008D1E1690143E161F8
:10465000E1690840009000980120009085480068BA
:10466000C00510D4834F3868A10D01433960FFF7AE
:10467000B7FC06003868C00505D4FFF7B1FC801B05
:104680006528F7D356E702988068012808D00028EB
:1046900001D1206A09E00528206A06D1284320625A
:1046A000206A01210143216205E001218843206243
:1046B000206AA84320620298806800280FD0FFF784
:1046C0008FFC6D49019102270600206A384013D102
:1046D000FFF786FC801B01998842F6D32AE7FFF793
:1046E0007FFC654F0600206A800705D5FFF778FC40
:1046F000801BB842F7D31DE70098002803D0E0697B
:10470000A8490140E16102980078C00626D50298C8
:104710004069012841D1606B05436563606B0121ED
:1047200001436163FFF75CFC0225029E0700606B9A
:1047300028400BD1FFF754FCC01B0228F7D9F9E63B
:1047400000100240FFFFFEFFFFFFFBFF606BF82140
:104750008843B169C9000143616302960298006A07
:10476000002800D182E061680C220A40082A63D048
:104770008025AD048C49022820684FD1014021607A
:10478000FFF72EFC029E07002068284028D0FFF784
:1047900027FCC01B0228F7D9CCE60421C943884274
:1047A000606B0AD101406163606BF8218843029914
:1047B0008969C90001436163D0E705436563606BA4
:1047C000012188436063FFF70BFC06000225606B44
:1047D0002840C3D0FFF704FC801B0228F7D9A9E6C4
:1047E000E06A0F218843F16A0143E162606883490E
:1047F0000140B06A0843716A01436160206869083A
:1048000001432160FFF7ECFB0600206828402DD112
:10481000FFF7E6FB801B0228F7D98BE601402160F9
:10482000FFF7DEFB0600206828401FD0FFF7D8FB0B
:10483000801B0228F7D97DE6012815D06068E16A5F
:10484000802252020240029B5B6A9A420CD1090705
:10485000090F029AD26A914206D1F02189030140E0
:104860000298806A814201D0012000E0002003B05C
:10487000F0BD00000070004089130000F0B581B069
:1048800005005CD0009101275D48006838408842EF
:104890000AD25B480168B943009A0A430260006883
:1048A0003840009988424AD12968564C022001427A
:1048B0000CD0490704D56168E022D2000A43626047
:1048C0006168F0229143AA680A436260296839400E
:1048D00025D06968012902D12068800303E00229FC
:1048E00003D12068800103D429E02268104026D03B
:1048F00060680322904301436160FFF771FB06008B
:1049000060680C21014068688000814207D0FFF791
:1049100067FB801B3C498842F2D3032040E03848C3
:10492000009902683A4091420BD20168B943009A5B
:104930000A430260006807400098874201D00120C6
:104940002EE02878400705D5606830490140E868C6
:104950000843606060680F250C210140082912D1CE
:1049600031A1820C2A408E5CE16AC00307D5284839
:1049700031A22940515CFDF72CFE704304E025482C
:104980004643300000E0224823496268120915407E
:10499000495DC84021490860032001F0EDF800207E
:1049A00001B0F0BDFFFFFFEFFFFFFFFE10B51C4899
:1049B00002680C211140082913D10F211AA3940C6D
:1049C0000C401C5D836AD00307D511481AA2194018
:1049D000515CFDF7FEFD604310BD0E4844432000CE
:1049E00010BD0B4810BD0D4800680E490C4A1268F6
:1049F0005205520F895CC84070470000FFFFC2FF9C
:104A0000002002400010024089130000FFF8FFFF61
:104A100000127A0000093D0040760008440300209F
:104A20000410024060760008020304050607080926
:104A30000A0B0C0D0E0F10100102030405060708E7
:104A4000090A0B0C0D0E0F10F0B583B004003F4D9A
:104A50002068C0035BD500278020400529680140FD
:104A600007D129680143296029680840009000980F
:104A7000012737480068C00513D435480068A90DE0
:104A8000014333480160FFF7ABFA06003048006885
:104A9000C00506D4FFF7A4FA801B6528F6D30320CF
:104AA00051E0C02080006968014024D06268104055
:104AB000814220D0696827480840696880225202F4
:104AC0000A436A606968244A0A406A606860C007ED
:104AD00011D5FFF785FA21490191022100910600C5
:104AE00068680099014006D1FFF77AFA801B0199A6
:104AF0008842F5D3D3E768681649014060680843E7
:104B00006860002F03D0286815490140296020788B
:104B1000C00705D5686903218843A168014369611D
:104B20002078800605D5686910218843E168014333
:104B300069612068400505D568694021884321697D
:104B400001436961002003B0F0BD00001C10024069
:104B500000700040FFFCFFFFFFFFFEFF8913000015
:104B6000FFFFFFEFF0B587B0142200216846FFF782
:104B70003FFC8021C903274802680A43026002689B
:104B80001140059105998021890202680A4302605B
:104B900002681140059105998021C90202680A4303
:104BA000026000680140059105981B4C9027FF05A5
:104BB000012221003800FEF75DFD184E002247213A
:104BC0003000FEF757FD164800900025019502952C
:104BD00069463800FEF710FC009401240194029508
:104BE000039569463800FEF707FC472000900194C2
:104BF0000295039569463000FEF7FEFBC020400099
:104C000000900195029569463000FEF7F5FB07B06C
:104C1000F0BD00BF14100240808000000004004876
:104C20000C19000000B581B0012009490A6802434F
:104C30000A600968084000900098002200210A20BC
:104C400000F0D6FF0A2000F0F1FF01B000BD00BF68
:104C500014100240F0B583B00C2200216846FFF723
:104C6000C7FB384C3848206000266660A660E660C6
:104C70000125256104276761A661FF20C230E0613C
:104C8000266224216654A562200000F0F9FF002866
:104C900001D0FFF755FB0096280301900004029015
:104CA0006946200001F0A8F8002801D0FFF748FB72
:104CB00000956946200001F09FF8002801D0FFF719
:104CC0003FFB00976946200001F096F8002801D0CC
:104CD000FFF736FB062000906946200001F08CF8B3
:104CE000002801D0FFF72CFB03B0F0BD10B586B053
:104CF00004001422002101A8FFF77AFB2068124962
:104D000088421CD11148410D42680A434260426802
:104D10001140009100998021890202680A430260D3
:104D200000680140009100985320019003200290F8
:104D30000020039001A99020C005FEF75DFB06B09E
:104D400010BD00003C0E0020002401401410024061
:104D500000B581B0424843490160E1214902416008
:104D600000218160C16001610C2242618161C161E9
:104D70000162416200F082F8002801D0FFF7E0FAFA
:104D800001B000BD70B586B0040001A8002100226A
:104D900000230EC006C020683249884236D132480E
:104DA0008021C90142680A43426042681140009173
:104DB00000998021890202680A430260006801406C
:104DC00000910098C020C0000190022002900025B0
:104DD0000395032004900120059001A99020C005AF
:104DE000FEF70AFB214E224830607560B5608020D6
:104DF000F06035617561B561F561300001F0A2F8D0
:104E0000002801D0FFF79CFA2667746206B070BDD7
:104E100000681449884200D0704730B581B0154C05
:104E2000201DFDF797F9C0B2628813496518002864
:104E300005D02900231D1818FDF7E0F903E029002B
:104E4000201DFDF7BBF961882800FFF7FFFA8022DB
:104E50002900034800F0DEF80120207001B030BDC9
:104E60004C0C00200038014014100240F80D0020C6
:104E700030000240C803002004080000F0B581B0F3
:104E8000060014D0340074346068002803D1207008
:104E90003000FFF777FF242060603068016801224E
:104EA00091430160300000F051FB012801D1012045
:104EB000A9E0706A002802D0300000F0CCFB306816
:104EC0004168524A0A404260306881682A22914310
:104ED00081603068016801220A4302600025E560B4
:104EE000FFF77EF8070030680068000750D530688B
:104EF000C06980024CD4FFF773F8C01B802189047D
:104F0000884229D2306800684007F0D5880B3168A4
:104F1000C9690140EBD031680862EFF310800121CC
:104F200081F3108831680A68394B13400B6080F3B5
:104F30001088EFF31080012181F3108831688A68AE
:104F400001239A438A6080F3108820206060A0606B
:104F5000E0602570032056E0EFF31080012181F31B
:104F6000108831680A682A4B13400B6080F3108860
:104F7000EFF31080012181F3108831688A680123E2
:104F80009A438A6080F3108820206060A060E0E788
:104F900030680068400730D53068C06940022CD4C2
:104FA000FFF71EF8C01B80218904884209D23068AF
:104FB00000684007F0D5880B3168C9690140EBD023
:104FC000A9E7EFF31080012181F3108831680A68A6
:104FD0000F4B13400B6080F31088EFF3108001211A
:104FE00081F3108831688A6801239A438A6080F3CC
:104FF000108820206060A060ABE720206060A06087
:1050000035660020207001B0F0BD0000FFB7FFFF43
:105010005FFEFFFFF0B583B007003D005835686ABA
:10502000202875D100290DD068460280002A09D0B9
:10503000B86880225201904206D13869002803D115
:10504000C80701D5012064E0287F012860D001262F
:105050002E770024AC603868406800020DD5EFF36D
:1050600010800190012080F3108838680268B30630
:1050700013430360019880F31088796568460088BF
:105080002880AC6222206862A86900281AD065498D
:1050900081626548A969C8621F48A9690863A8694F
:1050A0004463684603887A6D39682431A86900F042
:1050B0007DFF002806D01020A8622C77202068628F
:1050C000012026E02C77EFF31080012181F3108876
:1050D00039680A68330213430B6080F31088EFF3DA
:1050E0001080012181F3108839688A6816438E6028
:1050F00080F31088EFF31080012181F31088396864
:105100008A68402313438B6080F31088002000E0FE
:10511000022003B0F0BD00001D58000830B581B07A
:105120000400A06FE56F21688968090627D521284A
:1051300025D1EFF31080012181F3108821688A685E
:1051400080239A438A6080F31088E06E002808D09C
:1051500000F074FF002804D0E06E01F00AF8202867
:105160002BD0EFF31080012181F3108821680A68A9
:10517000C0239A430A6080F310882020A06720682B
:10518000806840064AD5222D48D1EFF310800121D6
:1051900081F3108821688A6840239A438A6080F3EB
:1051A0001088206F00280DD000F048FF002809D09B
:1051B000206F00F0DEFF202804D1102080216050F5
:1051C00003202CE0EFF31080012181F31088216887
:1051D0000A68164B13400B6080F31088EFF31080C1
:1051E000012181F3108821688A6801239A438A602B
:1051F00080F31088206E01280BD1EFF3108001217D
:1052000081F3108821680A6810239A430A6080F3AA
:1052100010882020E067002020666066002001B032
:1052200030BD000065570008FD570008DFFEFFFF96
:10523000F0B581B004002368D86919689A68BE4E39
:10524000064025005835002E0DD12026304200D1D1
:10525000B0E00E4000D1ADE0E968002900D169E17D
:105260002000884766E10126324203D1B34F0F4048
:1052700000D19FE0C70705D5CF0503D51E62AB6AF5
:105280001E43AE620223184207D0D60705D5266812
:105290003362AE6A04273743AF620426304206D039
:1052A000D70704D527683E62AE6A3343AB62082352
:1052B000184208D08E0601D4D20704D522681362A2
:1052C000AA6A1343AB6280221201104207D04B013D
:1052D00005D523681A62AA6A20231343AB62AA6A1F
:1052E000002A00D126E12026304006D0314004D0EB
:1052F000E968002901D020008847A96A4020226877
:105300009268024002D128220A404DD0EFF310816A
:10531000012282F3108822681368894F1F401760AA
:1053200081F31088EFF31081012282F31088226844
:1053300093680127BB43936081F31088A968012912
:105340000BD1EFF31081012282F3108822681368D9
:105350001027BB43136081F310886E620021A9609F
:10536000E9602168896808401AD0EFF310800121B4
:1053700081F3108821688A6840239A438A6080F309
:105380001088A86900280BD06E494163A86900F015
:1053900077FE002800D1CDE0A869416B8847C9E0BD
:1053A000200000F0E8FEC5E0200000F0E4FE002050
:1053B000A862BFE0AE68012E00D08DE0102630421A
:1053C00000D189E0314200D186E01E622068806809
:1053D00040064AD5A8690168496889B2002900D108
:1053E000A8E05822A25A914200DBA3E069808069BC
:1053F000202835D0EFF31080012181F31088216837
:105400000A68514B13400B6080F31088EFF3108053
:10541000012181F3108821688A6801239A438A60F8
:1054200080F31088EFF31080012181F31088216848
:105430008A6840239A438A6080F31088202068623B
:105440000020A860EFF31080012181F3108821680B
:105450000A68B2430A6080F31088A86900F0EEFD84
:105460005820205A6988411A31E05820205A69880A
:10547000411A688800285DD008045BD0EFF31080E3
:10548000012282F31088226813682D4E1E40166098
:1054900080F31088EFF31080012282F310882268D5
:1054A00093680126B343936080F3108820206862DC
:1054B0000020A860E860EFF31080012282F31088DA
:1054C000226813681025AB43136080F3108889B2FB
:1054D000200000F051FE2DE080267603304206D0F9
:1054E000520204D51E62200000F047FE22E0802216
:1054F000104207D00A4005D0296900291AD020009F
:10550000884717E04022104014D00A4012D0EFF331
:105510001080012181F3108819460A6840239A43BC
:105520000A6080F310882020286200202861200073
:1055300000F024FE01B0F0BD0F08000020010004BF
:10554000DFFEFFFFD5580008FFFEFFFF70B5050026
:105550000026002428680168714A0A40A96811439E
:105560002A690A4369691143EA690A43026041688A
:105570006C4A0A40E9681143416081686A4A0A40FE
:10558000A96911432A6A0A438260684988420FD197
:10559000674800688007800F0DD0022806D003D32B
:1055A00003280AD1022109E0042107E0082105E0CF
:1055B0006049884201D1002100E0102180200002D2
:1055C000EA69824222D1002906D0022919D0042991
:1055D00019D0082904D039E0FFF705FA002836D0A1
:1055E000696840004A088018FCF7F3FF80B252490E
:1055F0000200103A8A4229D201400007400F0843B6
:105600001CE04E48ECE7FFF7D1F9E7E7002906D0A8
:10561000022916D0042916D0082904D016E0FFF775
:10562000E2F9002813D069684A088018FCF7D1FF16
:1056300080B201001039404A914207D22968C860FF
:1056400005E03E48EFE7FFF7B1F9EAE701246E66AF
:10565000AE66200070BD2421415CC90706D50168F3
:105660004A68374B1340826A1A434A602421415CDE
:10567000890706D501684A68324B1340C26A1A434B
:105680004A602421415C490706D501684A682E4BCF
:105690001340026B1A434A602421415C090706D576
:1056A00001684A68294B1340426B1A434A6024211F
:1056B000415CC90606D501688A68254B1340826B98
:1056C0001A438A602421415C890606D501688A68EC
:1056D000204B1340C26B1A438A602421415C490667
:1056E00011D501684A681C4B1340026C1A434A608A
:1056F000026C80235B039A4205D14A68174B134022
:10570000426C1A434A602421415C090606D50168AF
:105710004A68134B1340806C184348607047000080
:10572000F369FFFFFFCFFFFFFFF4FFFF00380140E9
:105730003010024000440040F0FF000000127A00E8
:10574000FFFFFDFFFFFFFEFFFFFFFBFFFF7FFFFFF0
:10575000FFEFFFFFFFDFFFFFFFFFEFFFFFFF9FFFF9
:10576000FFFFF7FF30B581B00100486A02005832F0
:105770008969202936D000215180EFF3108101235F
:1057800083F3108803681C68514D25401D6081F328
:105790001088EFF31081012383F3108803689C685D
:1057A0000125AC439C6081F31088EFF31081012345
:1057B00083F3108803689C684025AC439C6081F3A8
:1057C000108820215162916801290BD1EFF31081DB
:1057D000012383F3108803681C681025AC431C6008
:1057E00081F310889168012904D15821415A00F0B1
:1057F000C3FC01E0FFF70CFB01B030BD00B581B088
:10580000406A016E012905D15821415A490800F02A
:10581000B3FC01E000F0B3FC01B000BD70B5406A1C
:10582000010060318B69CA690468A468240612D536
:10583000212B10D1002352240353EFF310830124B2
:1058400084F3108804682568C026B543256083F377
:10585000108820238B6103689B685B0630D5222A61
:105860002ED10022040052342281EFF31083012450
:1058700084F31088046825681C4E2E40266083F34C
:105880001088EFF31083012484F310880468A5685E
:105890000126B543A56083F31088036E012B0BD15D
:1058A000EFF31083012484F3108804682568102620
:1058B000B543256083F310882023CB610A604A60DA
:1058C0000A6A102313430B6200F055FC70BD000000
:1058D000FFFEFFFF00B581B0406A01005231002297
:1058E0000A810A8000F047FC01B000BDDFFEFFFF27
:1058F0007047704770B504000E009025ED0500223A
:1059000080212800FDF7B6FE80202043FEF745FBEE
:105910003000FEF742FB012280212800FDF7AAFE9D
:1059200070BD70B504000E009025ED0500228021A9
:105930002800FDF79FFE6006400EFEF72EFB0020BC
:10594000FEF72BFB3070012280212800FDF792FE2C
:1059500070BDF0B581B006000D0014009027FF0562
:10596000002280213800FDF785FE80203043FEF7BD
:1059700014FB200005D02878FEF70FFB6D1C641E79
:10598000F9D1012280213800FDF774FE01B0F0BD8D
:10599000F0B581B006000D0014009027FF0500222D
:1059A00080213800FDF766FE7006400EFEF7F5FA1E
:1059B000200006D00020FEF7F0FA28706D1C641E4F
:1059C000F8D1012280213800FDF754FE01B0F0BD6E
:1059D00070B505000C009026F605002280213000ED
:1059E000FDF748FE8020FEF7D8FA200005D0287881
:1059F000FEF7D3FA6D1C641EF9D10122802130001C
:105A0000FDF738FE70BD70B505000C009026F60558
:105A1000002280213000FDF72DFE0020FEF7BDFAA8
:105A2000200006D00020FEF7B8FA28706D1C641E16
:105A3000F8D1012280213000FDF71CFE70BD00B5B9
:105A400081B0802109019020C005FDF70CFE01B056
:105A500000BD00B581B0802149019020C005FDF74F
:105A600002FE01B000BD00B581B008219020C00544
:105A7000FDF7F9FD01B000BD01207047012070471E
:105A80007047FEE70EB4C0B5020003A801900020E5
:105A9000009001AB0121044878440C30FBF710FB67
:105AA000029906B0084700BF6D1B000000B581B029
:105AB000012200BF10A14300C95A0E4B80001858A4
:105AC000FDF7D8FD01B000BD30B581B00AA142009C
:105AD0008C5A084980000D1828684169614041616D
:105AE0003220FEF7E1F9286841694C40446101B079
:105AF00030BD00007402002002000400020001001A
:105B00000648074901600749416007498160074924
:105B1000C160074901610749416170477C0E00205F
:105B200055720008E7720008157300083373000807
:105B30004D730008677300080CB418B583B00400F7
:105B40000A0006A8029001940020009002AB01A96F
:105B5000084878441E30FBF7B3FA0021019A11700F
:105B6000002801D40198001B04B0019910BC03B0B7
:105B7000084700BF3FC6FFFF30B581B005000E4C9F
:105B8000FA2080002178FCF724FD01000B48006812
:105B9000FCF71FFD00F053F800280AD1042D08D2AD
:105BA000002229000020C04300F022F8A560002058
:105BB00000E0012001B030BD1C03002044030020A0
:105BC00081B0012009490A6802430A600A6810404E
:105BD00000900098802040054A6802434A60496866
:105BE00008400090009801B0704700BF18100240B4
:105BF00010B4C20018231340FF249C40E2438907DD
:105C0000090E9940030004D417489B089B00C01854
:105C100006E0164B0007000F0838800880001818AF
:105C200003681A401143016010BC7047010005D49D
:105C30000121C006C00E81400D4801607047401E22
:105C40000C49884201D9012070470B4948600B4834
:105C500002681202120AC0231B06134303600020CD
:105C6000886007220A60704700E400E01CED00E055
:105C700000E100E0FFFFFF0010E000E020ED00E0A9
:105C8000F0B581B004000025002C01D10120ABE06B
:105C9000A06B002805D1E063342160542000FFF799
:105CA00025F81021A06B084000D098E0236804205C
:105CB0009A68024000D092E0A26B4C4E164002223D
:105CC0003243A26301229E68B607B60F012E05D1AA
:105CD0001E6816400FD1DE6836040CD4DE68182723
:105CE000BE43A7683743DF6023681E69B600B60865
:105CF000676837431F612368DE683D4F3740DF60C8
:105D0000A36A012B01D0860200E000262369022B42
:105D100001D1009000E00095A37E207E8003677E85
:105D2000FF030743580338430643E0683043009EAF
:105D300006432420205C40003043E67E012E0CD137
:105D4000002B03D103000803184306E0A36B2026B1
:105D50001E43A663E36B1343E363E369FF26C23686
:105D6000B34202D00343206A18432368DE68064327
:105D7000DE60E36A0E06B3420DD0012B0BD0022B7E
:105D800009D0032B07D0042B05D0052B03D0062BFD
:105D900001D0072B0CD123685E690727BE435E61E3
:105DA00023685E692C27E75D7F077F0F37435F61BC
:105DB0000223DB432668F6680E4F3740874205D141
:105DC000E563A06B03401A43A2630CE0A06B0340A1
:105DD0001943A163E06B1043E063012503E0A06B6E
:105DE0000143A1630125280001B0F0BDFFFEFFFFC4
:105DF0001902FEFFE7FF3F83F0B581B004000025E4
:105E0000002600953420205C012801D1022088E082
:105E100001203423E054226893685B0779D40B682F
:105E200098404B68404FBB42936A5FD018439062E2
:105E3000E06A8022520590421DD001281BD0022822
:105E400019D0032817D0042815D0052813D0062808
:105E500011D007280FD0226807208B6857690740A8
:105E6000BB4208D0536983435361226853698F68EA
:105E70003840184350610868102831D0112832D0BA
:105E800012284BD180204004284A13681843106020
:105E90000868102842D1264800682649FCF799FB7B
:105EA00081000818400000900098002836D0009823
:105EB000401E00900098002830D00098401E0090AE
:105EC000009800282AD00098401E009000980028D2
:105ED00024D00098401E0090009800281ED0E6E7CD
:105EE00080200004D0E78020C003CDE78343936285
:105EF0000868102809D0112809D012280ED10E499F
:105F00000A4802681140016008E00C49F8E70C49B2
:105F1000F6E7A16B20220A43A26301263420255410
:105F2000300001B0F0BD0000011000000827014062
:105F30004403002040420F00FFFFFFFEFFFF7FFFF2
:105F4000FFFFBFFF10B5040001D1012010BD0220EA
:105F50002121605420680168114A0A406168114398
:105F6000A2680A43E168114322690A436169114347
:105F7000A2690A43E1691143016020680949401898
:105F80001421FCF726FB800020640748E063002012
:105F9000A06301212122A1542021605410BD0000E2
:105FA0000FC0FFFFF8FFFDBF00000240F2B4002564
:105FB00000212024045D012C01D102203BE00124BA
:105FC0002027C45502262127C75D012F2FD1212765
:105FD000C655856305682E68A6432E60056C0126AC
:105FE000AE40C56B6E6005686B60009B4568102D08
:105FF000056803D1AA600268D36002E0AB60036861
:10600000DA600268C36A002B136803D00E251D43B3
:10601000156007E00A251D43156002681368042512
:10602000AB431360006802681443046002E020215F
:1060300045540221080001B0F0BC704710B40021A3
:106040002122825C022A05D004228263202281540C
:10605000012013E0026813680E24A3431360026852
:1060600013680124A34313600122036C9C40C36B9B
:106070005C602123C25420228154002010BC704750
:1060800070B50022002401212123C35C022B03D020
:1060900004228263012415E003681D680E26B543BF
:1060A0001D6003681D688D431D60036C01259D40C4
:1060B000C36B5D602123C15420214254416B0029F0
:1060C00000D08847200070BD70B5C16B09680268B8
:1060D0001368046C04250426A6400E4010D02B4201
:1060E0000ED01168890602D41168A9431160016CB1
:1060F0008D40C16B4D60C16A002939D0884770BDA1
:1061000002250226A6400E4017D02B4215D011685A
:10611000890606D411680A239943116001212122BE
:106120008154016C8D40C16B4D600021202281544F
:10613000816A00291CD0884770BD08250826A64022
:106140000E4015D01D4013D011680E2399431160E5
:106150000121026C01239340C26B536081632122B1
:106160008154002120228154016B002900D08847EE
:1061700070BD806B704770477047704770477047BD
:1061800070B5514C00262677216B3F314220FFF736
:10619000C8FB4E4D6F22691C0120FFF7F9FB202040
:1061A000216B08736F22691C0120FFF7D2FB206866
:1061B00000F042FBA07900F0C9FBE07900F007FC99
:1061C000207A00F01DFC607900F0A7FB607A00F0F7
:1061D00037FC3F4800F091FC207E00F049FC012094
:1061E00000F0A7FC20683B49884207D3002000F05C
:1061F0006EFC002000F04AFC0E2006E0802000F03B
:1062000066FC012000F042FC1420207100F031FBFC
:10621000206B40784007400FA077012812D0E07F24
:10622000002803D0E6770020FFF72AFC206B417896
:10623000F8220A40012111434170206B417801206E
:10624000FFF758FB70BD30B581B0040000201E4D33
:10625000296B49784907490FA9778C4213D0032C41
:1062600000D10120EA7F904202D0E877FFF708FCD6
:10627000286B4178F8220A4014434470286B417817
:106280000120FFF737FB01B030BD10B50E4B1A8C63
:1062900000241C840A8019003C31FBF7AFFF10BDBD
:1062A00030B581B00C00084D2200010028003C30C0
